:020000040800F2
:10000000103400209D0100081F1900087D18000809
:100010001D190008550C0008BD2D00080000000047
:10002000000000000000000000000000151C000897
:10003000F513000800000000F5190008591E00081B
:10004000C3010008C3010008C3010008C301000880
:10005000C3010008C3010008C3010008C301000870
:10006000C3010008C3010008C3010008C301000860
:10007000C3010008C3010008C3010008C301000850
:10008000C3010008C3010008C3010008C301000840
:10009000C3010008C3010008C3010008C301000830
:1000A000C3010008C3010008C3010008C301000820
:1000B000C3010008B91E0008C3010008C3010008FD
:1000C000C3010008C3010008C3010008C301000800
:1000D000C3010008C3010008A51F0008C3010008F0
:1000E0001D140008C3010008C5190008C301000859
:1000F000C3010008C3010008C3010008C3010008D0
:10010000C3010008C3010008C3010008C3010008BF
:10011000C3010008C3010008C3010008C3010008AF
:10012000C3010008C3010008C3010008C30100089F
:10013000C3010008C3010008C3010008C30100088F
:10014000C3010008C3010008C3010008B919000871
:10015000C3010008C3010008C3010008C30100086F
:10016000C3010008C3010008C3010008C30100085F
:10017000C3010008C3010008C3010008C30100084F
:10018000C3010008C3010008DFF80CD000F072FBC7
:1001900000480047995200081034002009480168BF
:1001A00041F470010160084880470848004700009A
:1001B000FEE7FEE7FEE7FEE7FEE7FEE7FEE7FEE717
:1001C000FEE7FEE788ED00E05D1E000889010008FB
:1001D0002DE9FE4F804681EA0300C00F0C460090D7
:1001E00021F0004123F00045B8EB0200A94105D2FF
:1001F0004046214690461C460B46024623F00040EE
:10020000104347D0270DC7F30A00C3F30A510290E9
:10021000401A019040286BDAC3F3130040F4801BAE
:100220000098924620B10023D2EB030A63EB0B0B3C
:1002300001985946C0F14002504600F0FEF90646CA
:100240000D4650465946019A00F016FA10EB080088
:100250006141002487EA115284EAE7731A4340D0CF
:10026000009A62B3019A012A4FEA075215DC001B7B
:1002700061EB02014FF0004202EA0752CDE9004271
:10028000001C41F5801132462B4600F04DFA03B0B8
:10029000BDE8F08F40462146F9E7001B61EB020103
:1002A000001C41F5801300185B412018A2F50017CF
:1002B00047EB030140EAD570B6196D4111E06D08B6
:1002C0004FEA360645EAC0754FEA0752001B61EB5C
:1002D0000201001C41F5801149084FEA3000001965
:1002E000514132462B4603B0BDE8F04F00F00DBA45
:1002F0000098012240000023D0EB020263EBE07380
:10030000009821464FEAE074B8EB000061EB04016D
:10031000E9E783F000435BE781F0004158E72DE90E
:10032000FE4F81EA030404F0004421F000410094F0
:100330004FF0000B23F0004350EA01045ED052EA74
:1003400003045BD0C3F30A54C1F30A552C44A4F24E
:10035000F3340194A0FB0254C1F3130141F4801162
:10036000C3F3130343F4801301FB024400FB034E69
:10037000840A970A44EA815447EA8357A4FB076832
:1003800002958D0A05FB07854FEA932C04FB0C545C
:100390002705029D4FEA065847EA1637B5EB0805D0
:1003A0006EEB070C870E920E47EA811742EA831222
:1003B000A7FB0201B6EB0B0164EB00042B0D43EA33
:1003C0000C335E1844EB1C50DA465146E7FB020141
:1003D000C5F313044FEA0B3343EA14534FEA0432D4
:1003E000019C43EA0603A4F10C040294009CCDE9AD
:1003F00000B400F099F903B0BDE8F08F0020014689
:10040000F9E72DE9F04D81EA030404F0004B21F0F7
:10041000004514464FF0000A23F0004150EA05025F
:1004200020D054EA01021DD0C5F30A570246C5F395
:100430001303C1F31300C1F30A5640F4801543F4CB
:100440008013A7EB0608101BD64608F2FD3873EBA5
:10045000050002D308F1010801E092185B41B8F1F0
:10046000000F03DA00200146BDE8F08D00204FF4B4
:100470008011064684460EE0171B73EB050705D373
:10048000121B63EB050306434CEA010C49084FEAD3
:10049000300092185B4150EA0107EDD152EA0300A7
:1004A00012D082EA040083EA0501084305D0101B3C
:1004B000AB4106D20122002306E000224FF00043A8
:1004C00002E06FF0010253101AEB06004CEB0851EA
:1004D00010EB0A0041EB0B01BDE8F04D00F015B93F
:1004E00070B5C1F30A5201F000450024C1F31301B5
:1004F00040F2FF3341F480119A4201DA002070BDCE
:1005000040F233439A42A2F2334203DC524200F0FB
:10051000A3F800E090402C43F1D0404270BD00F0C1
:10052000004230F000400AD0C10D01F56071C0F307
:10053000160042EA0151C2084007114370470020EB
:100540000146704730B5041E71F1000404DB4FF022
:100550000044404264EB0101141E73F1000405DB0A
:100560001C464FF00043524263EB0403994208BF1C
:10057000904230BD01F0004330B421F0004150EA18
:10058000010206D00A0DA2F56072C1F31301002A20
:1005900002DC30BC00207047440F44EAC104C100B3
:1005A000E01830BC00EBC25000F078B830B50B4614
:1005B000014600202022012409E021FA02F59D4293
:1005C00005D303FA02F5491B04FA02F52844151E67
:1005D000A2F10102F1DC30BD2DE9F05F05460020FB
:1005E00092469B4688460646814640241BE02846A4
:1005F00041464746224600F02FF853465A46C01A55
:10060000914110D311461846224600F016F82D1AD3
:1006100067EB01084F4622460120002100F00DF84B
:1006200017EB00094E41201EA4F10104DFDC48460F
:1006300031462A464346BDE8F09F202A04DB203A93
:1006400000FA02F1002070479140C2F1200320FA25
:1006500003F3194390407047202A04DB203A21FA23
:1006600002F00021704721FA02F3D040C2F12002CB
:100670009140084319467047202A06DBCB17203AE1
:1006800041FA02F043EAE07306E041FA02F3D04097
:10069000C2F1200291400843194670470029A8BFC3
:1006A0007047401C490008BF20F00100704710B49B
:1006B000B0FA80FC00FA0CF050EA010404BF10BC50
:1006C000704749B1CCF1200421FA04F411FA0CF17D
:1006D00018BF012121430843A3EB0C01CB1D4FEAB6
:1006E00000614FEA102042BF002010BC704700EBB1
:1006F000C35010440029A4BF10BC7047401C4900DF
:1007000008BF20F0010010BC704710B5141E73F133
:10071000000408DA401C41F1000192185B411A43C1
:1007200001D120F0010010BD2DE9F04D92469B460D
:1007300011B1B1FA81F202E0B0FA80F220329046B3
:10074000FFF77BFF04460F4640EA0A0041EA0B012F
:1007500053465A46084313D0114653EA010019D0B4
:10076000C8F140025046FFF777FF05460E46504657
:1007700059464246FFF761FF084305D0012004E0D7
:1007800020463946BDE8F08D0020054346EAE07674
:100790002C4337430A986305E40AA0EB08000022C3
:1007A000FD0A44EA47540A3002D500200146E9E731
:1007B000010510196941DDE9084500196941BDE8E5
:1007C000F04DA2E770B521F0004303430CD0C1F314
:1007D0000A550024D5EB040564EB0403D617AD1AC3
:1007E000B34102DB0020014670BD201841EB0251ED
:1007F00070BD0EB5C10F80EAE0700844CA07002141
:1008000040F233438DE80E000A460B46FFF78CFF9B
:1008100003B000BDC1F30A52C1F3130140F2FF332C
:1008200041F480119A4202DA00200146704740F2FA
:1008300033439A42A2F2334202DC5242FFF70CBF2A
:10084000FFF7FBBE30B5041E71F1000404DB4FF06E
:100850000044404264EB0101141E73F1000405DB07
:100860001C464FF00043524263EB04038B4208BF27
:10087000824230BD064C074D06E0E06840F00103BF
:1008800094E8070098471034AC42F6D3FFF780FC99
:1008900048580008685800082DE9F04D00231A4612
:1008A0001B1A8A4103DB00200146BDE8F08DC1F32D
:1008B0000A52C1F3130141F480154FF0000BD10728
:1008C00002D100186D41521E0027044640F2FF116C
:1008D000384601EB620A3E468046024600204FF44D
:1008E0008011FFF7B9FEC2197141BB1846EB010038
:1008F000B4EB030C75EB000C04D3E41A65EB0005B4
:1009000017460E46241908F101006D41804634282F
:10091000E3DDF91946EB0600091BA84103D24FF0AD
:10092000FF32134601E0002213461BEB070046EBA3
:100930000A51BDE8F04DFFF7E8BE70B58C1810F80D
:10094000015B15F0070301D110F8013B2A1106D114
:1009500010F8012B03E010F8016B01F8016B5B1E2E
:10096000F9D12B0705D40023521E0DD401F8013B09
:10097000FAE710F8013BCB1A921C03E013F8015B75
:1009800001F8015B521EF9D5A142D8D3002070BDF9
:100990000029816802D041F0010101E021F001014C
:1009A00081607047084B10B5D3F8042307490A400B
:1009B000D0E900142143D0E902400443214311430C
:1009C000C3F8041310BD000000200140E030FCFF1C
:1009D0000029816802D041F4807101E021F4807126
:1009E0008160704730B542680F4B0C791A400B6834
:1009F00042EA04221343436082680C4B4D791A404B
:100A0000D1E9034323438C6844EA45042343134359
:100A10008360C26A097D22F47002491EC9B242EAAB
:100A20000151C16230BD0000FFFEFFFCFDF7FFC0B9
:100A300006490028D1F8040302D040F4005001E038
:100A400020F40050C1F8040370470000002001406A
:100A500070B5072409290AD9C568A1F10A0606EB71
:100A60004606B440A543B3401D43C56007E0056991
:100A700001EB4106B440A543B3401D4305611F236C
:100A8000072A09D2446B521E02EB820293409C4318
:100A900091400C43446370BD0D2A09D2046BD21FF0
:100AA00002EB820293409C4391400C43046370BD6F
:100AB000C46A0D3A02EB820293409C4391400C437E
:100AC000C46270BD816841F0804181607047000060
:100AD0000748084A90ED010A10EE101A914205DD10
:100AE000DFED050A30EE600A80ED010A7047000074
:100AF000A00000200000B4430000B44370B5294CAE
:100B00004FF00005E06BA0F2F310404260666571A3
:100B100004D5C043401C606601206071606E40F2E5
:100B20004D11484300EE100A9FED1F1AF8EEC00A5F
:100B300094ED110A20EE011A80EE810A10EE100ADF
:100B400084ED1D0AB0F17E5F02DDB7EE000A06E01B
:100B500010EE100A10F1814F03D9BFEE000A84EDA8
:100B60001D0A10EE100AFFF7DAFC41EC100B02F040
:100B70006FF951EC100BFFF7FDFC00EE100ADFEDF2
:100B80000B0AD4ED121A20EE201A81EE210A84ED10
:100B90001E0A6079012804D130EEC00A657184ED27
:100BA0001E0A70BD2000002000C82F4700003443FB
:100BB000254810B5026B01219FED240AA0F18003A6
:100BC000012A18D0022A1DD01C46DFED200A94ED20
:100BD0001F0A042A30EEC00A1BD0082A1CD0044683
:100BE000DFED1A0A94ED000A102A30EEC00A17D081
:100BF000202A24D017E0D0ED010A30EE600A80ED03
:100C0000010A0BE0D0ED010A30EE600A80ED010A26
:100C100008E083ED1F0A14E083ED1F0AC16202E0C1
:100C200080ED000A4162816A002907D093ED1F0A16
:100C3000DFED070A30EE200A80ED010A10BD80EDDD
:100C4000000A8162F2E70000A00000200000B44327
:100C500000007043FEE7000070B588B0012113204A
:100C600000F0CAFE02258DF804500024E0208DF823
:100C700006402D4E00908DF807408DF805506946CE
:100C8000304600F0CDFC05221146304600F019FD3B
:100C900005220621304600F014FD052207213046CA
:100CA00000F00FFD01268DF804608DF806408DF8E8
:100CB000076000968DF8055069461C4800F0B0FCAE
:100CC0004FF4A0608DF8044000908DF806408DF838
:100CD00005506946164800F0A3FC0121080300F006
:100CE000A3FEADF808404FF48270ADF80A00ADF8ED
:100CF00010602802ADF812000820ADF81400ADF81D
:100D00000C40ADF8164007200A4CADF81800ADF8BD
:100D10000E5002A9204600F022FF0121204600F0DB
:100D2000DFFE08B070BD0000000002400004024079
:100D3000001002400030014070B5204D01212846CE
:100D400000F0D8FC1E4C2021204600F0D3FC80216E
:100D5000204600F0CDFC41F2883000F04CFB012130
:100D6000284600F0C7FC012000F045FB0121284681
:100D700000F0BEFC012000F03EFB0121284600F0FF
:100D8000B9FC292000F037FB0121284600F0B0FC17
:100D90004021204600F0A5FC0028F9D10021302098
:100DA00000F0A8FE4021204600F09BFC0028F9D16D
:100DB0002846BDE87040012100F09CBC00040240C0
:100DC0000000024010B50D49FF2803D9FF228A70A8
:100DD000401C01E088700020C870084900230822E8
:100DE00008313E2004F088F90021362004F05AF939
:100DF000BDE810400621014804F02AB8EC000020AC
:100E000009484FF4FA71426AB2FBF1F2521C826651
:100E1000826AB2FBF1F2521CC266C26AB2FBF1F105
:100E2000491C016770470000200000202DE9F04FA9
:100E30008A4681460126DFF8A4B0294B01F2F3115E
:100E400000F2F31000254FF4FA7E0C4600220AE06F
:100E500019F9027011F901CBD3F8508017FB0C87F8
:100E6000521C92B21F65B242F2D31A6D611E761CFB
:100E70004BF82520002A04DB1C6C944201D2C3E904
:100E80000F5200246D1CADB21C657545DDD30126E3
:100E900040F2E632054600210BE000BF1AF901706E
:100EA00010F901CBD3F8508017FB0C87491C89B28D
:100EB0001F65B142F2D3196D681E761C4BF82210E3
:100EC000002904DB1D6C8D4201D2C3E90F21521EA3
:100ED00092B21C657245DDD2BDE8F08F3012002061
:100EE000200000200A4610B5090602F07F0306D54F
:100EF00003EB830100EBC10101F58E7105E002EB0C
:100F0000820100EBC10101F55D7100248C700B7052
:100F1000D2094A7001F009FE002010BD70B50C46E0
:100F20000E0601F07F0505EB850100EBC10102D53E
:100F300001F58E7101E001F55D71E4090D704C70F1
:100F40008A60CB7000D0CD80022B01D100220A71C3
:100F500001F0C2FD002070BD10B501F07F0404EB6C
:100F6000840100EBC101C1F88833C1F8802300235C
:100F7000C1F88C3381F8753381F87443C37801F577
:100F80005D71012B00D10A6114F0FF0F03D001F055
:100F9000FDFD002010BD01F031FDFAE700690022DF
:100FA00061F30A1201681143016070470A4610B5E7
:100FB000090602F07F0306D503EB830100EBC101B4
:100FC00001F58E7105E002EB820100EBC10101F534
:100FD0005D7101248C700B70D2094A7001F0BEFD66
:100FE000002010BD70B511F07F0404EB840100EB0C
:100FF000C1014FF0010581F81D5181F81C41C1F874
:101000002821C1F82C2101F58E714FF00002C1E9B1
:10101000053203D001F0BAFD002070BD01F0EEFCF6
:10102000FAE700002DE9F0410646002501F07FFEB9
:10103000074655E0F80751D03069EAB20369416BC1
:10104000D14006EB820201F00101926943EAC1112D
:1010500094680C40E1071AD00124426B04FA05F1B0
:101060008A43426306EB8500806984601F48E9B2C9
:101070000068426830469047F078012807D135B9BA
:1010800096F81101042802D1304601F013FD200723
:1010900004D506EB8500082480698460E00604D549
:1010A00006EB8500102480698460600604D506EB99
:1010B0008500402480698460A00704D506EB850084
:1010C000022480698460200608D52946304600F055
:1010D0001DF906EB85018020896988607F086D1CF9
:1010E000002FA7D10120BDE8F0810000DC03002023
:1010F0002DE9F0410646002401F01FFE0746DFF807
:10110000988043E0F8073FD0E1B2304601F01BFE83
:101110000546C00725D006EB84000125416D8D6092
:10112000F17801290CD1406D016904EB840006EBD4
:10113000C000C1F31201D0F87C23511AC0F88C13FF
:10114000D8F80000E1B2026830469047F0780128F4
:1011500007D134B996F81101052802D1304601F0C3
:10116000A9FCA80704D506EB84000225406D856024
:10117000280709D5D8F8000081683046884706EB73
:1011800084010820496D88607F08641C002FB9D154
:101190000120BDE8F0810000DC03002070B50646A8
:1011A000C068816921F010018161F068056A05F06D
:1011B0000F0000EB800006EBC004C5F3434004F5CC
:1011C0005D74072821D2DFE800F0202004202020D1
:1011D000150047F6F070054217D0C5F30A152A46E8
:1011E0003046E16801F0B7FDE0682844E060A0699E
:1011F000284409E0082206F2CC51304601F0ABFD4C
:10120000A069C5F30A110844A061F068816941F042
:1012100010018161012070BD38B5044600208DF8B1
:10122000000094F812018DF800001548006841692B
:101230002046884720698068E2684FF40061516168
:10124000A17AD1B1C00718D094F81501012814D1A2
:101250009DF80000032810D1D4F80C01016841F07A
:1012600001010160D4F80C01016841F00301016043
:101270000448016841F006010160012038BD00000A
:10128000DC03002010ED00E070B504460069002585
:101290000126416821F0010141602946204601F004
:1012A00005FD0020FF2106E004EB800293699960B0
:1012B000526D9160401C62788242F5D821694FF0EE
:1012C000FF3088612846216966F30F0066F31F40EE
:1012D000C861216945F00B004861216945F00B00A8
:1012E00008612069016821F4FE610160204601F077
:1012F000E1FBE1684FF480504861034800680169F0
:1013000020468847012070BDDC0300202DE9F0470E
:101310000D46064601EB850006EBC004D4E94C01FE
:10132000421AD4F8240104F58E74904200D2024689
:10133000D21C970806EB850918E000BFA0EB010856
:10134000A068404500D2804608F1030087081FFAD4
:1013500088F3EAB23046E16801F01CFDE16801EB78
:101360000800E060A16901EB0800A061D9F818004D
:10137000806980B2B84205D9D4E90501814201D221
:101380000028DBD10120BDE8F0870029016802D0E8
:1013900041F0010101E021F001010160704700000E
:1013A00030B50368124ACC6813400A682243D1E979
:1013B00005452C432243CC6922430C6A22434C6AE4
:1013C00022438C6A22434C6B22438C6B22431A4388
:1013D0000260426922F00703D1E90B2422431A4339
:1013E00042610A6942604A6882608968C16030BDB2
:1013F0003F801CF07047002104E00222521C0A2AA0
:10140000FCDB491C8142F8D3704700000022012117
:10141000014800F080BD00000004004010B54FF40A
:101420008064204600F02AF800281DD0204600F0F5
:101430001FF800F04DFB03F0D7FCC1B20B480129A7
:10144000C17211D10021C172012000F0D5FB002032
:1014500000F0D2FB022000F0CFFB002003F020FDC3
:10146000BDE8104000F04CBA10BD00002000002084
:101470000149086070470000143C0140064A0146DB
:1014800000201268044B0A4014331B680B4202D040
:10149000002A00D001207047003C01400122114683
:1014A000014800F038BD000000040040F0B53648A7
:1014B000002401460461354A43680925344E096811
:1014C000934201DA312302E0934202DD0E230362EC
:1014D00011E0304B45630462994204DA03239FED27
:1014E0002E0A436305E0B14205DD06239FED2B0A7A
:1014F000436380ED010A244B9FED290A803B294F6D
:10150000DB6F934202DA4FF0070C03E0934204DDF5
:101510004FF0380CC0F818C015E0DFF88CC04461FB
:1015200061450ADD4FF0010CC0F834C0D0ED010A6E
:1015300070EE600AC0ED010A05E0B94203DA4FF02F
:10154000040CC0F834C0914201DA1C2102E091423F
:1015500002DD2321C16110E045634461B34202DD35
:101560000221416309E0BB4207DA05214163D0ED66
:10157000010A30EE600A80ED010AD0E9061211403E
:10158000026A11400163F0BDA00000200000B442D7
:101590000000F0420000F0410000B4420000874328
:1015A0000000B443000070420000164370B588B0DC
:1015B000032502268DF80C50002402968DF80F406A
:1015C00002A9134800F02CF88DF8145004968DF8F9
:1015D000174004A90F4800F023F88DF81C50069618
:1015E0008DF81F4006A90C4800F01AF86803009017
:1015F00001208DF804008DF806408DF805508DF817
:1016000007406946054800F00BF808B070BD0000BF
:10161000000802400004024000000240000C0240AA
:10162000F0B50023012403270D6804FA03F21540E6
:10163000954242D1D0F800C05E0007FA06F52CEAC8
:10164000050CC0F800C091F804C0D0F800E00CFA16
:1016500006FC4CEA0E0CC0F800C091F804C0BCF1C6
:10166000010F02D0BCF1020F1FD1D0F808C02CEA44
:10167000050CC0F808C091F805C0D0F808E00CFAD5
:1016800006FC4CEA0E0CC0F808C0D0F804C02CEAE6
:10169000020CC0F804C0426891F806C00CFA03FCC2
:1016A0001FFA8CFC42EA0C024260C268AA43C26084
:1016B000CA79C568B2402A43C2605B1C102BB3D301
:1016C000F0BD4B07DB0E9A40C90810B500EB810056
:1016D000016A0F249C40A1430162016A1143016227
:1016E00010BD0246002012690A4200D00120704756
:1016F000418370470183704709490A88A1F1BE0000
:1017000082654A88C26589880166816D0909817090
:10171000C16D0909C170016E0909017170470000AE
:10172000DE00002070B5494C4FF4FA752DED028BA8
:10173000207880B9A078216B884207D8E078616B67
:10174000884203D82079A16B88421BD9032000F07E
:1017500053FA012020702169A94213DA3C4AA0788B
:101760005054626A10443B4A6062E0785054A26A66
:101770001044394AA06220795054E26A491C10444E
:101780002161E0622069A8425AD1FFF73FFE00F0D4
:1017900043FAFFF735FB00F035FB2E492C48FFF7E5
:1017A00045FB002525642565FFF7A8F994ED1E0A81
:1017B0009FED2A8A84ED1F0A84ED1E8A264925485A
:1017C000FFF734FB25642565FFF798F91F4E94ED6C
:1017D0001E0A80361E4986ED000A84ED1E8A1E48C8
:1017E000FFF724FB25642565FFF788F994ED1E0AB1
:1017F0001B4D86ED010ABDEEC00A284610EE101AF8
:1018000000F090FC0A21284600F08CFC7068FEF77E
:1018100086FE41EC100B13A053EC102B01F0EEFAF6
:1018200000F0A0FA7068FEF77AFE41EC100B0DA0F4
:1018300053EC102B01F0E2FA03F06EFAFFF72EFEE4
:10184000E068401CE060BDEC028B70BD2000002011
:1018500084040020780600206C08002000000000AE
:1018600000440040536F7572636520416E676C657C
:1018700028333129203D202566200A00FEE700009C
:1018800038B51D208DF8000000248DF8014001209E
:101890008DF802008DF80300684600F041F8012140
:1018A000022000F0B5F80B4815214160532101805A
:1018B00004814480084C0146204600F035FB01229B
:1018C0001146204600F027FB0121204600F00DFBC9
:1018D00038BD0000780400200004004010B503F07B
:1018E00063F94FF4165003F081FCFFF7C9FFFFF7CF
:1018F000B3F9FFF721FABDE81040002003F0D0BA99
:1019000010B5002003F0CCFA0122BDE810401146CA
:10191000014800F000BB0000000C0040FEE77047EB
:1019200030B50F22C47801780123FCB1144C24682F
:1019300001F1E02104F4E064C4F5E064C4F3072499
:10194000C4F10405E2404478AC4085781540254355
:101950002A0181F80024007800F01F018B40400923
:10196000800000F1E020C0F8003130BD01F01F0020
:1019700083404809800000F1E020C0F8803130BD8C
:101980000CED00E00B488178C1648269914200D976
:101990008161C178C164C269914200D9C161017994
:1019A000C164026A914200D90162C168491CC160E8
:1019B0007047000020000020014800F039BD000001
:1019C000CC210020094810B5807A48B10848016848
:1019D00021F00601016000F041FA044801F0CBF962
:1019E000BDE810404FF48020FFF742BDCC2100201D
:1019F00010ED00E070470000044A0029116801D092
:101A0000014300E08143116070470000303802401C
:101A1000044A0029116801D0014300E081431160AC
:101A20007047000040380240044A0029116801D084
:101A3000014300E0814311607047000044380240D8
:101A400070B5204A1168204C11F00C0104D06610CA
:101A5000042903D0082903D004601BE0066019E0C4
:101A60001849091F0B68C3F380550B6803F03F0347
:101A700015B1B6FBF3F301E0B4FBF3F30C680968AE
:101A8000C4F388146343C1F30141491C4900B3FB0B
:101A9000F1F1016011680F2303EA11110B4B5C5C3B
:101AA0000168E14041601468072505EA94241C5D43
:101AB00021FA04F48460126805EA52329A5CD1403B
:101AC000C16070BD083802400024F400A00300206B
:101AD0000149024803F08EB9E8000020C027002029
:101AE0000029018802D041F0400101E021F04001CD
:101AF0000180704770B5134C054619B101290CD00F
:101B0000002070BD0146204600F027F80121204644
:101B100000F01AF80028F9D00FE00221204600F06A
:101B200013F80028F9D02946204600F016F80121C4
:101B3000204600F009F80028F9D0204600F00BF804
:101B4000C0B270BD003001400246002012890A4236
:101B500000D001207047808970478181704730B57F
:101B600002884C8802F441530A88CD8822438C882D
:101B70002C4322430C8922434C8922438C892243E3
:101B8000CC8922431A430280828B22F40062828332
:101B9000098A018230BD00001CB504460E480121AF
:101BA00050F82400FFF728FF0B480021083830F8D0
:101BB0001400009001208DF804008DF806108DF8B7
:101BC000070002208DF805000448694650F82400FB
:101BD000FFF726FD1CBD00000C5600081000002079
:101BE0000349044A31F8101052F82000018370476D
:101BF0000456000810000020044951F820104A69DA
:101C0000034B33F8100042404A6170471000002037
:101C100004560008704700002DE9F041114F124DA5
:101C200000244FF4FA763957284600F07BFA641CFA
:101C3000A4B2B442F7D30D4F00242846395700F020
:101C400071FA641CA4B2B442F7D3094F00242846A9
:101C5000395700F067FA641CA4B2B442F7D3BDE868
:101C6000F081000084040020004400407806002039
:101C70006C0800200CB500202749019000900A68EC
:101C800042F480320A604FF4A0430A6802F4003242
:101C90000092019A521C0192009A12B9019A9A423A
:101CA000F3D10A68920334D5012000901A484030DD
:101CB000026842F0805202601848026842F44042D2
:101CC00002601548083002680260026842F400426F
:101CD0000260026842F4A0520260031F104A1A60B8
:101CE0000A6842F080720A600A689201FCD50D4AC7
:101CF00040F205611160016821F003010160016893
:101D000041F0020101600168C1F381010229FAD1A9
:101D10000CBD00900CBD0000003802400070004077
:101D200008544007003C02400D48816901EB410125
:101D30008A000A21B2FBF1F20263C26902EB42029D
:101D40009200B2FBF1F24263026A02EB420292009D
:101D5000B2FBF1F18163C168491CC16070470000AA
:101D60002000002010B5FFF7A1FBFEF721FFFEF7D2
:101D7000AFFE064890ED010ABDE81040BCEEC00A77
:101D800010EE100A80B2FFF71DB80000A00000207E
:101D9000164B10B5587830B10020FFF721FFBDE891
:101DA0001040FFF7BFBCD86841F28831884203DC9D
:101DB000BDE8104000F01EB8A0F598518939B1F582
:101DC000FA7F09D2FFF7DEFD094A5869997842F88F
:101DD0002010401C586110BDA0F5A8517D39FAD1E2
:101DE000FFF7A2FF0120587010BD00002000002066
:101DF000600A00200248C168491CC16070470000A9
:101E000020000020F0B5124900204FF4FA77D1E904
:101E10001A540E6F0F4901F5FA7201F57A7300BF7B
:101E200011F800C0ACEB050C01F800C012F800C0BE
:101E3000ACEB040C02F800C013F800C0ACEB060CCD
:101E400003F800C0401C80B2B842E9D3F0BD0000E6
:101E5000200000208404002070470000124810B5C4
:101E6000016841F4700101601048016841F001010E
:101E700001600E4A00210832116002680C4B1A40C2
:101E80000260031D0B4A1A60026822F4802202607D
:101E900006480C300160FFF7EDFE03494FF000608B
:101EA0008039086010BD000088ED00E00038024075
:101EB000FFFFF6FE1030002410B5094C012120462A
:101EC00000F01DF8002809D00121204600F00AF892
:101ED000FFF712FCBDE81040FFF75ABF10BD00002D
:101EE00000040040C943018270470029018802D0E4
:101EF00041F0010101E021F001010180704702463B
:101F00000020138A92890B4202EA010202D0002AC1
:101F100000D001207047002A828901D00A4300E0E6
:101F20008A4382817047000030B50288164B174CF7
:101F300098420DD0A0420BD0B0F1804F08D0144D84
:101F4000A84205D0134DA84202D0134DA84203D198
:101F500022F070054A882A43104DA84206D0104D41
:101F6000A84203D022F440750A892A4302804A68B5
:101F7000C2620A880285984201D0A04201D1897AC2
:101F800001860121818230BD000001400004014032
:101F90000004004000080040000C00400010004019
:101FA0000014004010B50B4C40F22551204600F0C3
:101FB00024F818B10021084600F002FF082120464D
:101FC00000F014F8002804D02046BDE8104000F0CE
:101FD000A1B810BD004400400029818902D041F41D
:101FE000005101E021F40051818170470246002038
:101FF00012880A4200D00120704730B501F01F025C
:1020000001240025C1F3421304FA02F2012B0FD080
:10201000022B0FD0838A4FEA11210088134204FA61
:1020200001F400EA040001D000B10125284630BDCA
:102030008389F0E7038AEEE710B5C1F3421301F09C
:102040001F040121A140012B07D0022B07D014301F
:10205000002A026805D00A4304E00C30F8E710308B
:10206000F6E78A43026010BD7FB50446008A0D463C
:1020700020F44051E88808432082A08941F20C6195
:102080008843A9882A8911436A8902431143A1819F
:10209000A08A20F44071A8890843A0826846FFF70F
:1020A000CFFC1A48844202D01948844201D10398D7
:1020B00000E00298A189090400EBC00101EB0010C7
:1020C000296801D5490000E08900B0FBF1F26420E5
:1020D000B2FBF0F109010B096FF018056B4302EB3D
:1020E0008302A3891D044FF0320306D503EBC2021D
:1020F000B2FBF0F000F0070005E003EB0212B2FBC8
:10210000F0F000F00F00084320817FBD0010014077
:10211000001401408088C0F308007047C1F3080133
:102120008180704703B401884906FCD5019902B04B
:1021300089B2FFF7F3BF10B5D0F8E4255268904795
:10214000002010BD10B5134600240A462146FEF7B4
:1021500003FF204610BD10B5134600240A46214651
:10216000FEF740FF204610BD10B504468021FEF763
:102170001DFF00212046FEF719FF2046BDE8104054
:1021800000F098BC70B505460024052085F81101C3
:102190002346224621462846FEF7DEFE284600F06A
:1021A00089FC204670BD10B5C0F83C210223C0F860
:1021B000382180F81131134600240A462146FEF7E3
:1021C00011FF204610BD70B505460024042085F897
:1021D00011012346224621462846FEF703FF2846E2
:1021E00000F068FC204670BD70B5054641B1D5F8D9
:1021F000E40542698AB395F81201032846D047E006
:1022000095F81101002605F58E74022833D1E16995
:10221000A06881420FD9081AE061E878012803D14B
:10222000D4E902100844E060A08BE16882B228463D
:10223000FFF791FF1FE0216AB1FBF0F200FB1212E1
:1022400062B981420AD3606A814207D200221146F4
:102250002846FFF780FF66620DE016E0D5F8E4053A
:10226000C16829B195F81201032801D12846884791
:102270002846FFF787FF95F81601012808D1054881
:1022800000682969486085F8166101E02846904792
:10229000002070BDE003002070B5054641B1D5F8BF
:1022A000E40582690AB395F8120103282CD02DE0C9
:1022B00095F8110105F55D74032827D1E169A0683F
:1022C000814213D9081AE061E878012803D1D4E9E2
:1022D00002100844E060E169A068814200D208462B
:1022E00082B22846E168FFF72DFF0FE0D5F8E4053C
:1022F000016929B195F81201032801D128468847C0
:102300002846FFF760FF01E028469047002070BD97
:1023100010B50446D0F8E80540698047012084F8EC
:102320001501002010BD10B50446D0F8E8058069FD
:102330008047D4F8E40500214268204690470020F9
:1023400084F8150110BD38B5044648880D46010AC9
:1023500004295AD2DFE801F059021420D4F8EC1510
:10236000A0780A68694690470146E888402803D06B
:1023700094F81201012837D10820ADF8000037E0A9
:10238000D4F8E415A0788A6A69469047014602208D
:102390004870C4F8F01527E0C0B2062835D2DFE84F
:1023A00000F003080D12171CD4F8EC15A0784A6849
:1023B00017E0D4F8EC15A0788A6812E0D4F8EC1590
:1023C000A078CA680DE0D4F8EC15A0780A6908E096
:1023D000D4F8EC15A0784A6903E0D4F8EC15A0789D
:1023E0008A69694690470146BDF8000000280BD075
:1023F000EA88002A08D080B2824200D90246ADF8AD
:1024000000202046FFF7CFFE38BD29462046FFF7C3
:10241000ABFE38BD10B5D0F8E415096A8847002036
:1024200010BD10B5D0F8E415496A8847002010BDEA
:102430002DE9F0470446002500F06BFC00287DD014
:10244000204600F06FFC060079D0300303D520460B
:10245000FEF74EFE0546700303D52046FEF7E2FD6B
:102460000543B0074FF0000A02D5E1680220486139
:102470004C4F4FF00109002E17DAA07A30B1D4F892
:102480000C01D4F80C1120F00300086020694168A9
:1024900021F0010141603868816920468847E16880
:1024A0004FF00040486145F00105300503D5204656
:1024B000FEF7B2FE0543300708D53868C1682046EC
:1024C0008847E1680820486145F00105F00603D51A
:1024D0002046FEF763FE0543F00403D52046FEF7D1
:1024E000D3FE0543B0041AD5204600F069FAE0682F
:1024F000D0F80C80204600F0F9FB032847D084F880
:102500000290402128F47050A18000F5A050E168AD
:10251000C860E1684FF40050486145F00105F002E1
:1025200009D53868C16920468847E1684FF48010B2
:10253000486145F00105B0020CD501E024E024E03B
:102540003868016A20468847E1684FF40010486106
:1025500045F00105700009D53868416A2046884772
:10256000E1684FF08040486145F0010570070BD5E8
:10257000E0684668700703D53868816A2046884756
:10258000E068466045F001052846BDE8F08784F81C
:1025900002A04FF4007128F47050A18000F5105093
:1025A000B5E70000DC03002090F8CC250A7090F815
:1025B000CD254A7090F8CE2590F8CF3502EB032256
:1025C0004A8090F8D02590F8D13502EB03228A801A
:1025D00090F8D22590F8D33502EB032292B2CA804C
:1025E0000121C0F8402180F81111704710B5002377
:1025F000044640221946FEF791FC00234022802128
:102600002046FEF78BFC012084F81201D4F8E8156F
:10261000A07849688847002010BD10B50446D0F85E
:10262000E80500698047032084F81201002010BDEE
:1026300010B5D0F8E415C96901B18847002010BD74
:1026400010B50446D0F8E405026820469047D4F857
:10265000E80580688047002010BD000070B50A467C
:102660001A4D897804462970012905D894F8120179
:10267000022807D003280CD02046BDE87040114640
:10268000FFF772BDA1B184F81011032084F8120184
:102690000BE091B194F81001884209D00146204620
:1026A000FFF749FD297884F810112046FFF7C8FF8D
:1026B0002046BDE87040FFF786BD022084F8120175
:1026C00084F810112046FFF736FDF1E7E4030020FF
:1026D00010B504464888012201280FD0022831D1C4
:1026E000888810F0FF0F2DD121694968000A06285B
:1026F0001FD2DFE800F01E0B0F13171BC4F81821C0
:10270000D4F8E40582682046904716E021F0700175
:1027100010310EE021F0700120310AE021F070014B
:10272000303106E021F07001403102E021F070010B
:1027300050310548016084F816212046BDE810405C
:10274000FFF741BD10BD0000E00300201CB50446AA
:102750006946FFF729FF9DF8001011F01F000AD00D
:1027600001280DD0022810D001F080012046FEF78C
:102770001DFC00201CBD6946204600F00BF8F8E760
:102780006946204600F0E8F8F3E76946204600F085
:1027900079F8EEE72DE9F0414A78002701260A2A68
:1027A00042D2DFE802F03B554152410805412A2759
:1027B000FFF7C9FD61E004468888C8B9C888B8B980
:1027C000887800F07F0594F81201032810D084F86F
:1027D000145129462046FEF7E1FB2046FFF7F3FCA3
:1027E0001DB1022084F8120147E084F8126144E030
:1027F000204619E0FFF732FF3FE0CA88012A13D1D3
:1028000090F81221022A02D0032A0DD102E00122FF
:102810001B4917E0012200F5887113E090F812219E
:10282000022A04D0032A02D0FFF79EFC25E01449B7
:102830000839CE60D0F818210AB10322CA601049C5
:102840000222091DFFF7AFFC17E0FFF741FF14E07C
:10285000044690F81201022801D00328C8D1488804
:1028600001280AD10020C4F81801D4F8E4058268D0
:10287000204690472046FFF7A6FC3846BDE8F08189
:10288000EC03002070B50D460446097968780026EF
:1028900058B3012816D0032831D194F81201022828
:1028A0002FD0032827D1688828B921B1802902D0E8
:1028B0002046FEF77BFBD4F8E405294682682046D3
:1028C00090470EE094F8120102281AD0032812D182
:1028D0006888A0B929B1802903D02046FEF702FB01
:1028E000E9E72046FFF76FFC09E094F8120102289F
:1028F00007D003280DD029462046FFF735FC304687
:1029000070BD0029FBD08029F9D02046FEF74EFB90
:10291000F5E710480D064FF000034FF0010208D50F
:1029200001F07F0101EB810104EBC10191F81E115F
:1029300005E001EB810104EBC10191F8761309B1C7
:10294000426000E0436003490222091D2046FFF770
:102950002AFCD4E7E403002070B5054690F8120184
:1029600000260C4603280DD1207901280AD8D5F875
:10297000E405826828469047E08830B92846FFF78A
:1029800022FC02E02846FFF7EFFB304670BD10B591
:1029900090F8121180F81311042180F81211D0F868
:1029A000E805C0688047002010BDC0EB0010002182
:1029B000C0000722B0FBF2F0491C8142FCD97047ED
:1029C00010B5016900238C6882691168C4F3410461
:1029D0002CB1012C03D0022C04D0032C05D16FF3B1
:1029E0000A0102E06FF30A01C91C11600069416825
:1029F00041F480714160184610BD0000F0B54A787E
:102A000000254C69012A15D00A7800EB82035A6D23
:102A100016681269DCB38C68C1F8144064F30602CE
:102A20005B6D22F4C01202F500221A61C278012AFD
:102A300030D035E083691F681A6934B18E68B442BA
:102A400006D966F306024E6104E022F07F0201E03F
:102A500064F3060222F4C01202F500221A61C27861
:102A6000012A05D10C780A6900EB8404A46962612B
:102A700047F004421A60C278CAB94A69BAB10A7802
:102A8000006901219140426B0A4342630FE0FFE776
:102A90000C7AC3E70B780A6900EB83035B6D5A611C
:102AA000097846F0044200EB8100406D0260284640
:102AB000F0BD0000426D07491161C178012908D1BC
:102AC000426D00F2CC515161406D01684FF08021A0
:102AD00001607047180008C0F0B50E7800254F78E7
:102AE0000122B2402B4600EB8604012F19D0646D01
:102AF00062F31F43226816040DD40E8966F30A029E
:102B0000CE78897966F3934261F3995242F080510D
:102B100041F4004121600069C1691943C16128463F
:102B2000F0BDA46962F30F03E4E710B502464C78E8
:102B30000B78002002EB8302012C09D0526D136840
:102B4000C97823F40013032904D0022902D003E03A
:102B50009269F4E743F08053136010BD02464B784E
:102B60000978002002EB8101012B05D0496D0A682C
:102B700042F400120A6070478A691168002901DA7C
:102B800041F0804141F4001111607047F0B54B787D
:102B90000A78002401264F6900EB8202012B15D030
:102BA000556D2B682A69002F61D08E6837447F1ECF
:102BB000B7FBF6F767F3DC42C2F3C947774367F325
:102BC00012022A61C278012A57D05CE095692B680D
:102BD0002A696FB1D1F808C067F3120267447F1EFB
:102BE000B7FBFCF767F3DC42CF78012F05D008E094
:102BF0006FF3120266F3DC4203E022F0C04202F1FE
:102C000000522A61C278012A0ED0CA78012A12D055
:102C10004A69BAB10A7896400269556B35435563E3
:102C2000CA78012A07D00DE00D780A6900EB850506
:102C3000AD696A61F4E702699268120AD2070CD0A2
:102C400043F0805343F004420B7800EB83039B690D
:102C50001A60CA78012A03D026E043F00053F1E756
:102C60008A8A93B20A78C96800F094F81CE08F68E9
:102C700067F3120266F3DC42A3E70D780A6900EB02
:102C800085056D6D6A61CA78012A06D14A7912B14B
:102C900043F0005301E043F08053097843F00442CD
:102CA00000EB8100406D02602046F0BD38B5002485
:102CB00022460094009B43F020030093009B61F3A5
:102CC0008A1300930099C36819610749C0680369B2
:102CD0000093521C8A4202D8009B9B06F7D4032023
:102CE000FFF763FE204638BD400D0300014600207B
:102CF00009698968C1F3410139B1012903D0022969
:102D000005D0032900D1022070470320704701201D
:102D10007047C068406910F0010F01D00020704773
:102D200001207047C06841698069084070470069A8
:102D30008169C069084080B2704700698169C069D3
:102D40000840000C704700EB8101496D89680069FB
:102D5000406908407047034610B50020D21C920815
:102D6000D3F8D03003E01C6841F8044B401C90427B
:102D7000F9D3084610BD817A00290AD00169896813
:102D8000C90706D0D0F80C11D0F80C0121F00301CE
:102D90000160704730B5C47800256CB900EB820043
:102DA0000024DB1C9B08D0F8D00003E051F8042B72
:102DB0000260641C9C42F9D3284630BDFEE7000047
:102DC0000B4810B50C4A84790A4B1068072C02D0C6
:102DD000082C02D002E001F07F011954401C106061
:102DE000B0F5006F01D100201060002010BD000080
:102DF0006004002009280020FC0300200FB4054BCC
:102E000010B503A9044A029801F036FB10BC5DF826
:102E100014FB00005D4D0008E400002003B401989D
:102E20004100009850EAC12018BF04204A0D18BF85
:102E300040F0010040F2FF72B2EB515F08BF40F07A
:102E40000200012808BF052002B070470000000002
:102E500010B5B94A2DED020B2DED0C8B82B00F99F8
:102E600021F000409FEDB6CB90422CDBA0F1405307
:102E70000E9AA3F17F631A430FD0B349884202DC54
:102E800016D10E98A0B19DED0E0B02B0BDEC0C8BCF
:102E900002B0BDE8104001F0E3B90029C1BF9FEDC9
:102EA000AC0B02B0BDEC0C8B02B0C8BF10BD16E07D
:102EB000012001F029FA02B0BDEC0C8B02B0BDE894
:102EC000104001F0E1B9A44A9FEDA59B9FEDA6AB90
:102ED00090425EDAA6499FEDA8CB814208DBB0EEB6
:102EE0004C0AF0EE6C0A02B0BDEC0C8B02B010BDC7
:102EF0009DED0E0B53EC102B51EC100BFDF70FFA60
:102F000041EC180B9E480621B0EE480AF0EE680A24
:102F1000784401F011F953EC182B51EC100BFDF72C
:102F2000FEF941EC1B0B9748B0EE480AF0EE680A38
:102F30000421784401F000F953EC182B51EC100BEC
:102F4000FDF7EDF953EC192BFDF742F941EC100BAD
:102F500051EC1B0B53EC102BFDF753FA41EC100B0B
:102F600053EC102B9DED0E0B51EC100BFDF7D7F928
:102F700053EC1A2BFDF7D0F99DED0E1B53EC112BE2
:102F8000FDF7CAF953EC1C2BFDF7C6F941EC100B09
:102F9000A9E79FED7D8B9FED7EBB9DED0E0B00297C
:102FA00053EC192B51EC100B52DAFDF711F953ECDD
:102FB000182BFDF7B4F941EC180B77480621B0EE59
:102FC000480AF0EE680A784401F0B6F853EC182B82
:102FD00051EC100BFDF7A3F941EC1D0B6F48B0EE5F
:102FE000480AF0EE680A0421784401F0A5F853EC91
:102FF000182B51EC100BFDF792F953EC192BFDF740
:10300000E7F841EC190B51EC180B02F091F941EC87
:10301000180B53EC192B51EC1D0BFDF7F2F953EC87
:10302000182BFDF77CF953EC1A2BFDF772F941ECE4
:10303000100B51EC180B53EC102BFDF7C9F853ECA7
:103040001B2BFDF76CF953EC1C2BFDF765F96DE0BC
:10305000FDF762F953EC182BFDF761F941EC180B01
:1030600002F066F941EC1A0B00208DED00AB0090E8
:103070009DED000B51EC1A0B53EC102BFDF7A8F84B
:103080009DED000B41EC1C0B53EC102B51EC100B85
:10309000FDF745F953EC182BFDF73EF953EC1C2BCB
:1030A000FDF7AFF941EC1C0B3D48B0EE480AF0EEDD
:1030B000680A0621784401F03FF853EC182B51ECD4
:1030C000100BFDF72CF941EC1D0B3648B0EE480A09
:1030D000F0EE680A0421784401F02EF853EC182B26
:1030E00051EC100BFDF71BF953EC192BFDF770F8A1
:1030F00041EC100B51EC1D0B53EC102BFDF781F93B
:1031000053EC1A2BFDF70BF953EC1C2BFDF760F871
:1031100041EC100B53EC102B9DED000B51EC100B00
:10312000FDF756F853EC1B2BFDF7F9F841EC100BAB
:10313000D9E60000000000000000F03F00000000A1
:10314000182D4454FB2109400000F07F00000000CE
:1031500000000000000000000000E03F0000000050
:10316000000000000000F03F075C143326A6913CED
:103170000000603C00000000182D4454FB21F93F82
:10318000FC2700000A280000000000000000E03FCB
:103190000000000000000040462700005427000007
:1031A000582600006626000070B52DED020B2DEDAF
:1031B0000A8B82B00D98C40F20F00045AE488542BE
:1031C00048D3AE48854219D30C99C5F31300084380
:1031D00009D09DED0C0B02B0BDEC0A8B02B0BDE82E
:1031E000704001F03DB8002C14BF9FEDA50B9DED84
:1031F0000C0B02B0BDEC0A8B02B070BD9FEDA20BB0
:1032000053EC102B9DED0C0B51EC100BFDF79AF9C4
:103210000AD2022001F078F802B0BDEC0A8B02B0AD
:10322000BDE8704001F040B89FED990B53EC102BB6
:103230009DED0C0B51EC100BFDF704FB0AD20220A4
:1032400001F062F802B0BDEC0A8B02B0BDE870403C
:1032500001F03AB890489FED92BBA8425CD29248E8
:10326000854219D29148784400EBC40090ED000BE0
:1032700053EC102B9DED0C0B51EC100BFDF749F8A6
:1032800041EC1A0B8A48784400EBC40090ED009B97
:10329000C4F10100041B36E09FED870B53EC102BAB
:1032A0009DED0C0B51EC100BFDF739F841EC100BB8
:1032B0008348784400EBC40090ED001B51EC100BE8
:1032C00053EC112BFCF784FFFDF70AF90446FDF7D8
:1032D00090FA41EC180B9FED7C0B53EC102BFDF793
:1032E0001EF89DED0C1B53EC112BFDF715F841EC6E
:1032F0001A0B9FED770B51EC180B53EC102BFDF7CD
:103300000EF841EC190B51EC1A0B53EC192BFDF78D
:1033100000F8CDE90C011BE06F48854217D29FED04
:10332000700B53EC102B9DED0C0B51EC100BFCF7BC
:103330004FFF53EC1B2BFDF705F908D29DED0C0B4D
:1033400053EC1B2B51EC100BFCF742FF6EE00024FA
:103350009DED0C0B53EC102B51EC100BFCF7DFFF29
:1033600041EC180B60480521B0EE480AF0EE680AFF
:10337000784400F0E1FE53EC182B51EC100BFCF7F5
:10338000CEFF9DED0C1B53EC112BFCF7C5FF41EC60
:10339000180B9FED570B5CB353EC182B51EC100B33
:1033A000FCF7B7FF9DED0C0B41EC1C0B53EC182BFD
:1033B00051EC100BFCF7B3FF53EC1C2BFDF721F87D
:1033C00053EC192BFCF7A8FF53EC1A2BFCF7A1FFC9
:1033D00053EC1B2BFCF7A0FFCDE900016FF47F70CD
:1033E000844226DB01EB045001909DED000B00E7C9
:1033F00053EC102B51EC180BFCF78BFF9DED0C0BD5
:1034000041EC190B53EC182B51EC100BFCF787FF18
:1034100053EC192BFCF7F5FF9DED0C1B53EC112B16
:10342000FCF777FF53EC1B2BFCF776FF41EC100BFE
:10343000DFE608464FF07A5101EB04519FED2E0B69
:10344000084453EC102B01909DED000B51EC100B38
:10345000FCF765FF0D4645EC100B044651EC100BD4
:10346000FFF7DCFC042808BF00F02EFF45EC104BF2
:10347000BFE6000000000000422E86400000F07F02
:103480000000000000000000EF39FAFE422E8640E6
:1034900051302DD5104987C0422ED63F0000000084
:1034A000000000000000F03FB2A2F03F062500003F
:1034B000F624000000000000FE822B654715F73F50
:1034C000AA240000000000000000E0FE422EE63FBB
:1034D000763C7935EF39EA3D0000303E00000000CF
:1034E0009C7500883CE4377E1C240000000000002E
:1034F000000000000000004000000000000070011B
:103500002DE9F04D2DED040B2DED0C8B96B0DDE982
:103510002350259CDDF888A025F0004624F00048C3
:10352000BAF1000F14BF0121002101EB4502FE4951
:1035300053184A1093422AD3002814BF01230023B2
:1035400003EB44030B44F9498B4220D358EA0001B2
:103550009FEDF78B6FD0DFF8E0B35D4503D1BAF193
:10356000000F05D187E0BAF1000F08BF002100D09D
:10357000012101EB450111F5001F08D8002814BFF7
:103580000121002101EB440111F5001F0BD99DED34
:10359000241B9DED220B16B0BDEC0C8B04B0BDE8D6
:1035A000F04D00F067BE0027002DBCBFE349884501
:1035B00021DAE3498845A8BF02271CDAC3451ADC93
:1035C000E04901EB2851142908DDC1F1340220FA49
:1035D00002F101FA02F282420DD108E058B9C1F1BC
:1035E000140228FA02F101FA02F2424503D101F075
:1035F0000101C1F1020756EA0A011DD1002C1BDAB4
:10360000002D18BF022F01D0012F0AD0022000F098
:103610007BFE16B0BDEC0C8B04B0BDE8F04D00F0A5
:1036200007BE022000F070FE00F002FE51EC100B0D
:1036300081F0004183E01EE09FEDC39B9FEDC4AB92
:10364000002872D1BD4880452DD105F1804010F58C
:10365000801008BFBAF1000F0DD0B34515DC002C67
:10366000A1BF9DED240B16B0BDEC0C8B04B0A8BF20
:10367000BDE8F08D12E0B0EE480AF0EE680A16B030
:10368000BDEC0C8B04B0BDE8F08D002C06DA9DED8E
:10369000240B51EC100B81F0004150E0AE4878440F
:1036A00090ED000BEBE7D8454FD1002C4ADA2EB154
:1036B00086423BD1BAF1000F44D126E0BAF1000FA7
:1036C00013D0022000F020FE00F0EEFD8DED020B85
:1036D0009DED220B8DED000B10EE900A039961F326
:1036E0001E0003909DED020BC9E78DED029B9DED41
:1036F000220B19EE901A10EE900A8DED000B61F37B
:103700001E0003909DED020BB9E78DED02AB9DED20
:10371000220B1AEE901A10EE900A8DED000B61F359
:103720001E0003909DED020BA9E729E00ADA9DED4A
:10373000220B51EC180B53EC102BFCF762FE41EC02
:10374000100B9CE79DED220B99E7864218DAB4F145
:10375000804F0DD0A4F10050B0F1FF5010D1002DDA
:103760000EDB9DED220B51EC100B01F0E1FDE6E7C5
:103770009DED220B53EC102B51EC100B00F0AEBC66
:103780009DED220B51EC100B01F0B9FABAF1000FCC
:10379000CDE90C0134D19FED720BDEB1A6F1E04012
:1037A000B0F17F602CD1002D01DD002C0DDA002D51
:1037B00001DD002C1FDB002D16DA002C14DB012F9D
:1037C00008BF9FED690B3FF45AAFB0EE490AF0EE27
:1037D000690A54E7022F18BF002D0CD0012F0AD11F
:1037E000002DFFF64CAF06E0002DB8BF002C07DA25
:1037F000012F3FF444AFB0EE4A0AF0EE6A0A3EE70A
:10380000012000EBE57A5AEA07000CD05848002561
:1038100080457CDD57495848884514DDB0420DDBB2
:10382000002C19DB2BE0012000F06EFD16B0BDEC82
:103830000C8B04B0BDE8F04D00F026BDB34502DCB2
:10384000002C09DC1BE0864202DA002C17DA03E0C8
:103850005E4527DD002C12DD022000F055FD00F052
:1038600023FD10EE901A19EE900A8DED020B8DEDEE
:10387000009B61F31E0003909DED020BFFE602200A
:1038800000F042FD00F020FD10EE901A18EE900AB4
:103890008DED020B8DED008B61F31E0003909DED0D
:1038A000020BECE69DED220B53EC182B51EC100BA8
:1038B000FCF72FFD9FED320BCDE90A0153EC102BE5
:1038C0009DED0A0B51EC100BFCF729FD9FED2E1B13
:1038D00053EC112BFCF720FD9DED0A1B53EC112B33
:1038E000FCF71DFD9FED2A1B53EC112BFCF714FD7B
:1038F0009DED0A0B41EC190B53EC102B51EC100B06
:10390000FCF70DFD53EC192BFCF709FD00E07EE000
:103910009FED210B41EC1A0B53EC102B9DED0A0B84
:1039200051EC100B3CE00000FFFF1F00FFFF0F00F9
:10393000000000000000F03F0000F03F0000F07FBA
:103940000000404301FCFFFF000000000000F07F8A
:1039500000000000000000009E21000000000000A8
:103960000000000000000080000000000000F0FFE8
:103970000000E0410000F043FFFFEF3F00000000C7
:10398000000000000000D03F555555555555D53F16
:10399000000000000000E03F000000604715F73F16
:1039A000FCF7BDFC41EC190B9FEDFD0B51EC1A0B24
:1039B00053EC102BFCF7B3FC41EC1A0B9FEDFA0B08
:1039C00053EC102B9DED0A0B51EC100BFCF7A7FCF0
:1039D00053EC1A2BFCF79DFC41EC1A0B51EC190B24
:1039E00053EC1A2BFCF7F4FB0690CDE906519DED44
:1039F000060B53EC192B51EC100BFCF78AFC53EC23
:103A00001A2BFCF789FC41EC100B00F09FB9002049
:103A1000B6F5801F0EDA9FEDE60B53EC102B9DEDF3
:103A20000C0B51EC100BFCF77AFCCDE90C016FF09C
:103A300034000E4600EB2650A0F2FF38C6F3130008
:103A4000DD4940F07F6646F040568842D8BF0024EA
:103A500009DDDA498142C8BF012404DC0024A6F54F
:103A6000801608F10108D648784400EBC4000D9692
:103A700090ED00BB9DED0C0B53EC1B2B51EC100B90
:103A8000FCF747FC9DED0C0B41EC1A0B53EC1B2B88
:103A900051EC100BFCF79CFB41EC100B51EC180B9C
:103AA00053EC102BFCF7ADFC41EC1C0B51EC1A0B4A
:103AB00053EC1C2BFCF733FC41EC190BC1488DED8A
:103AC000109B7844109590ED000B4FF0005040EAA9
:103AD000660000EB84408DED0A0B00F500200B9092
:103AE0009DED0A0B53EC1B2B51EC100BFCF711FC5A
:103AF0009DED0C1B53EC112BFCF70EFC41EC100B55
:103B000053EC102B9DED100B51EC100BFCF707FC48
:103B10009DED0A0B41EC1B0B53EC102B9DED100B94
:103B200051EC100BFCF7FBFB53EC1A2BFCF7F4FBEE
:103B300053EC1B2BFCF7EDFB53EC1C2BFCF7EFFBC2
:103B400041EC1B0B53EC192B51EC190BFCF7E7FB69
:103B500041EC1A0B9C480621B0EE4A0AF0EE6A0AC4
:103B6000784400F0E9FAB0EE40CAF0EE60CA53ECD7
:103B70001A2B51EC1A0BFCF7D2FB53EC1C2BFCF765
:103B8000CEFB9DED100B41EC1A0B53EC192B51ECB5
:103B9000100BFCF71DFB53EC1B2BFCF7C0FB53EC8D
:103BA0001A2BFCF715FB9DED100B41EC1A0B53EC97
:103BB000102B51EC100BFCF7B2FB41EC1C0B9FEDF2
:103BC00084DB53EC1D2BFCF703FB53EC1A2BFCF7A7
:103BD000FFFA0A90CDE90A519DED0A0B53EC1D2B1B
:103BE00051EC100BFCF795FB53EC1C2BFCF791FBF5
:103BF00053EC1A2BFCF790FB9DED0A0B41EC1C0BD0
:103C000053EC102B9DED100B51EC100BFCF787FBC8
:103C100041EC1A0B53EC192B51EC1C0BFCF77FFBFE
:103C20009DED0A0B41EC190B53EC102B51EC1B0BC7
:103C3000FCF775FB53EC192BFCF7CAFA41EC190B96
:103C400051EC1A0B53EC192BFCF7C2FA1090CDE98A
:103C500010519DED100B53EC1A2B51EC100BFCF78F
:103C600058FB53EC192BFCF757FB41EC190B9FED5C
:103C70005A0B53EC102B9DED100B51EC100BFCF775
:103C80004EFB41EC1A0B9FED560B51EC190B53EC0C
:103C9000102BFCF744FB41EC190B9FED530B53EC3D
:103CA000102B9DED100B51EC100BFCF738FB53EC77
:103CB000192BFCF78DFA41EC100B4D48784400EBC2
:103CC000C40090ED001B51EC100B53EC112BFCF7D2
:103CD0007FFA41EC190B4046FCF78BFDCDE90A0158
:103CE00053EC192B51EC1A0BFCF772FA41EC100B48
:103CF0004048784400EBC40090ED00BB51EC100B41
:103D000053EC1B2BFCF764FA9DED0A1B53EC112BB3
:103D1000FCF75EFA0690CDE906519DED0A0B53ECD7
:103D2000102B9DED060B51EC100BFCF7F2FA53EC47
:103D30001B2BFCF7EEFA53EC1A2BFCF7EAFA53ECC8
:103D4000192BFCF7E9FA41EC100B00BF781EB0EE1E
:103D500048AAF0EE68AA5AEA000008BF9FED268B39
:103D60009DED241B53EC102B8DED001B00959DED5C
:103D7000240B51EC100BFCF7D2FA9DED000B41EC3B
:103D8000190B53EC102B9DED240B51EC100BFCF791
:103D9000C0FA9DED061B53EC112BFCF7C0FA2FE087
:103DA000FE822B654715F73F44DF5DF80BAE543EAE
:103DB00000000000000040438E9803007AB60B001C
:103DC0004C1D00007A1D0000841C00000000000053
:103DD0000000000000000840000000E009C7EE3FBE
:103DE000FD033ADC09C7EE3FF5015B14E02F3EBE50
:103DF000181B0000D21A0000000000000000F0BFF5
:103E000053EC192BFCF7E4F99DED060B41EC190B73
:103E100053EC102B9DED000B51EC100BFCF77FFACF
:103E2000CDE910019DED100B51EC190B53EC102B4B
:103E3000FCF7CEF9CDE902010C46AB498C422FDBF1
:103E4000611A084318D19DED100B53EC102B9DED1A
:103E5000020B51EC100BFCF75CFA41EC1B0B9FEDD5
:103E6000A40B51EC190B53EC102BFCF7B1F953ECEC
:103E70001B2BFCF767FB2DD2022000F045FA00F067
:103E800013FA10EE901A18EE900A8DED020B8DEDDC
:103E9000008B61F31E0003909DED020BFFF7EFBB5B
:103EA000954A24F00041914214D394492144084397
:103EB0007FF4E5AC9DED100B53EC102B9DED020B48
:103EC00051EC100BFCF725FA53EC192BFCF73AFBDD
:103ED0007FF6D5AC24F0004089498A4A002601EBE0
:103EE000205182422BDA481C4FF4801121FA00F055
:103EF0002044854AC0F30A517A44A1F2FF3192ED81
:103F0000000B824A8DED0A0BCA4020EA0202C0F380
:103F1000130040F48010C1F1140120FA01F60B9255
:103F2000002CB8BF76429DED0A0B53EC102B9DED93
:103F3000100B51EC100BFCF7ECF9CDE910019DEDE5
:103F4000100B51EC190B53EC102BFCF741F99FEDC2
:103F5000700B0A90CDE90A5153EC102B9DED0A0B22
:103F600051EC100BFCF7DBF941EC1B0B9FED6A0BDE
:103F700053EC102B9DED0A0B51EC100BFCF7CFF915
:103F80009DED100B41EC1C0B53EC102B9DED0A0B1F
:103F900051EC100BFCF7BDF953EC192BFCF7BCF9F5
:103FA0009FED5F1B53EC112BFCF7B9F953EC1C2B65
:103FB000FCF70EF941EC190B51EC1B0B53EC192BD0
:103FC000FCF706F9CDE902019DED020B53EC1B2B2A
:103FD00051EC100BFCF79DF953EC192BFCF79CF9F5
:103FE0009DED020B41EC190B53EC102B51EC100B17
:103FF000FCF795F9CDE90A014B489DED0A0B052127
:10400000784400F099F89DED0A1B51EC100B53EC2D
:10401000112BFCF784F99DED021B53EC112BFCF7DF
:104020007BF9CDE906019DED020B53EC192B51EC08
:10403000100BFCF774F953EC192BFCF7C9F89FED42
:104040003C0B41EC190B53EC102B9DED060B51EC86
:10405000100BFCF75EF99DED060B41EC1B0B53ECCE
:10406000102B9DED020B51EC100BFCF758F953ECA3
:104070001B2BFCF7C6F953EC192BFCF74AF99DED05
:10408000021B53EC112BFCF744F953EC1A2BFCF7F1
:1040900043F9CDE9020101EB065001150029C8BF23
:1040A000039015DC9DED020B324651EC100BFCF732
:1040B00089FBFEF7B3FE042808BF00F005F932467D
:1040C0009DED020B51EC100BFCF77CFBCDE90201DE
:1040D0009DED020B51EC180B53EC102BFCF71FF964
:1040E000FFF72DBB00000000000090400000000022
:1040F000FE822B654715973C00CC904000346F3F03
:1041000001FCFFFF0000E03F44190000FFFF0F002B
:1041100000000000432EE63F396CA80C615C20BE15
:10412000EF39FAFE422EE63F1418000000000000AE
:10413000000000000000004070B504462DED028B29
:104140004D1E00EBC500B0EE408AF0EE608A90EDA7
:10415000000B35F0060017D053EC182B51EC100B68
:10416000FCF7DDF841EC100B6D1E04EBC50090ED83
:10417000001B51EC100B53EC112BFCF729F841EC10
:10418000100B35F00600E7D1022D36D0042D1CD0DF
:10419000062D1CBFBDEC028B70BD53EC182B51ECEF
:1041A000100BFCF7BCF894ED0A1B53EC112BFCF739
:1041B0000FF853EC182BFCF7B2F894ED081B53ECF6
:1041C000112BFCF705F841EC100B53EC182B51ECBC
:1041D000100BFCF7A4F894ED061B53EC112BFBF726
:1041E000F7FF53EC182BFCF79AF894ED040B53EC03
:1041F000102BFBF7EDFF41EC100B53EC182B51EC9F
:10420000100BFCF78CF894ED021B53EC112BFBF711
:10421000DFFF53EC182BFCF782F894ED001B53ECF6
:10422000112BFBF7D5FFBDEC028B41EC100B70BDE1
:104230009FED070B10B553EC102B9FED070B51ECC6
:10424000100BFCF7DEF841EC100B10BD0000000075
:104250000000000000000000000000000000F03F2F
:1042600010B553EC102B51EC100BFBF7B1FF41ECE8
:10427000100B10BD10B553EC112B51EC100BFBF7CC
:10428000A7FF41EC100B10BD9FED050B10B553ECD3
:10429000102B51EC100BFCF7B4F841EC100B10BDD7
:1042A00000000000000000009FED050B10B553EC6E
:1042B000102B51EC100BFCF732F841EC100B10BD39
:1042C00000000000000000709FED050B10B553ECDE
:1042D000102B51EC100BFCF722F841EC100B10BD29
:1042E000000000000000001002E008C8121F08C112
:1042F000002AFAD170477047002001E001C1121F67
:10430000002AFBD170470000014908607047000097
:10431000680400202DE9FF5FDDE90220010DDDF8D2
:1043200038B0024318D044F61050A1F2FF31414397
:104330000D140F98012820D0A5EB0B00401C5FEA5C
:10434000000A4FF00004474EDFF81C91A04650468B
:1043500016D5CAF1000728E00F98012443A20128CE
:1043600008D0002100980F9BC0E90021C0E902435A
:10437000BDE8FF9F6FEA0B01F4E7CBF10000DEE739
:10438000074612E0F80707D0224633464046494622
:10439000FBF7C5FF8046894622463346104619463C
:1043A000FBF7BDFF04460E467F10002FEAD1DDE982
:1043B0000201BAF1000F42464B4602DAFBF7AFFFAB
:1043C00001E0FCF71EF804460E460022284BFCF7DD
:1043D000B9F803D84FF0FF30014607E00022254B23
:1043E00020463146FBF7F4FEFCF714FA102409E0EE
:1043F000002C0ADB0A220023FCF7EEF8019B303286
:104400001A55641E50EA0102F2D1641C019AC4F1EB
:10441000110314440F9A012A03D0012208430DD13D
:104420000AE0084304D000204FF0110B0F9080E702
:10443000A3EB0B056D1E0DE05B4504DD4FF00002A4
:1044400005F1010504E003DA4FF00002A5F10105D2
:10445000002AECD000980F99C0E90231C0E900456C
:1044600086E70000000024400000F03F300000001C
:104470000000F0430000E03F2DE9FF4F95B09B4660
:104480008946064600250FE2252877D100242746D5
:10449000F84A0121059400E0044316F8013F203B4F
:1044A00001FA03F01042F7D130782A2811D06FF0CA
:1044B0002F033078A0F13002092A16D8059A44F06B
:1044C000020402EB820203EB42021044761C0590C8
:1044D000EFE759F8042B0592002A03DA504244F41E
:1044E0000054059044F00204761C30782E2816D132
:1044F00016F8010F44F004042A280DD06FF02F02A3
:104500003078A0F13003092B09D807EB870302EBC1
:104510004303C718761CF3E759F8047B761C307800
:104520006C280FD006DC4C2817D068280DD06A28DC
:1045300014D104E0742810D07A280FD10DE044F48F
:1045400000140AE044F4801401E044F4401472784A
:10455000824202D104F58014761C761C30786628DD
:104560000BD013DC582877D009DC002875D04528FB
:10457000F6D04628F4D047281AD19DE118E06328E8
:1045800035D0642879D0652812D195E1702873D090
:1045900008DC6728F1D069286FD06E280DD06F280D
:1045A00006D1B5E073282CD0752875D0782874D042
:1045B0005A46179990476D1C75E1C4F302500228C2
:1045C00009D003280DD0D9F8001004280DD00D60B3
:1045D00009F1040967E1D9F80010EA17C1E90052AE
:1045E000F6E7D9F800100D80F2E70D70F0E719F842
:1045F000041B8DF8001000208DF80100EA46012010
:1046000003E059F804AB4FF0FF3061074FF00001B1
:1046100002D40DE008F101018846B9420FDA804565
:10462000F8DB1AF808100029F4D108E008F10101BC
:1046300088468142FADB1AF808100029F6D105985D
:104640005B46A0EB080721463846179A00F094FA1B
:10465000284400EB080507E04DE029E10DE01AF8D9
:10466000010B5A4617999047B8F10108F7D25B46FB
:1046700021463846179A13E142E00A220092C4F319
:1046800002524FF0000A022A08D059F804CB032A3C
:104690004FEAEC710AD00DE029E02AE009F10701A8
:1046A00021F00702F2E802C1914609E00FFA8CFC02
:1046B0004FEAEC71042A03D14FFA8CFC4FEAEC71FB
:1046C000002907DA0A460021DCF1000C61EB020147
:1046D0002D2202E0220504D52B228DF80420012290
:1046E00003E0E20701D02022F7E7904659E00A21D3
:1046F00002E010220DE010214FF0000A00910BE0C3
:1047000010224FF0000A44F004040827009203E04E
:1047100008224FF0000A0092C4F30252022A05D088
:1047200059F804CB0021032A08D009E009F1070158
:1047300021F00702F2E802C1914605E01FFA8CFC65
:10474000042A01D10CF0FF0C4FF00008220728D5F5
:10475000702806D0009B83F0100353EA0A0305D0AB
:104760000EE040228DF80420012208E05CEA0102FC
:1047700006D030228DF804208DF8050002229046E4
:10478000009B83F0080353EA0A030AD15CEA0102A2
:1047900001D1620705D530228DF804204FF00108C1
:1047A0007F1E582804D034A003900EA802900DE07C
:1047B00036A0F9E753466046009AFBF70DFF8446A2
:1047C0000398825C0298401E029002705CEA01002D
:1047D000F0D1029806A9081A00F1200A600702D554
:1047E00024F4803400E00127574502DDA7EB0A00DE
:1047F00000E0002000EB0A01009005984144401AB7
:104800000590E00306D45B462146179A059800F010
:10481000B3F90544002706E001A85A46C05D179980
:1048200090476D1C7F1C4745F6DBE0030CD55B46CB
:104830002146179A059800F09FF9054404E03020BE
:104840005A46179990476D1C0099481E0090002900
:10485000F5DC08E0029802995A460078491C02915A
:10486000179990476D1CBAF10001AAF1010AF1DC19
:1048700065E1000009280100303132333435363724
:10488000383961626364656600000000303132339C
:10489000343536373839414243444546000000003C
:1048A00000F058F90544761C307800287FF4ECAD10
:1048B00019B02846BDE8F08F620700D4062709F139
:1048C000070222F0070CFCE80223E14603F000484F
:1048D0005FEA080C02D00FF2702C0DE05FEA045C76
:1048E00002D50FF2682C07E05FEAC47C02D00FF219
:1048F000602C01E0AFF2700C4FF0FF3823F0004362
:10490000CDF850C065280CD006DC452809D04628D3
:104910001DD047283DD13DE0662818D067287ED1BC
:1049200038E00021112F01DB112000E0781CCDE9D7
:10493000000106A90EA8FFF7EDFCDDE90F010E9AB4
:1049400003910021009207F1010A04914DE04FF01C
:1049500000400097CDE9011006A90EA8FFF7DAFC88
:10496000DDE90F0203920E9B11990022DDF80CA0E5
:104970000093049211B9791C00EB010AB7EB0A000D
:1049800004D4C0F1FF3007F1010A0490AAEB07003C
:10499000019044E0012F00DA01270021112F01DDF1
:1049A000112000E03846CDE9000106A90EA8FFF766
:1049B000B1FCDDE90F010E9A0391002104910092F0
:1049C000BA4621070CD40399514500DA8A46BAF158
:1049D000010F05DD009AAAF10101515C302908D0D0
:1049E000B84202DA10F1040F06DA0121CDE9011014
:1049F00015E0AAF10101E9E7002805DC049901446A
:104A00000491AAEB000102E0411C514500DD8A46F9
:104A10000499401A401C01904FF00040029020077A
:104A200004D40198504501DBCDF8048000208DF8B6
:104A30004F0002980DF14F07B0F1004F25D02B2009
:104A40000E9002984FF0020800280CDA40420290C3
:104A50002D200E9007E00A210298FBF7A7FD3031C8
:104A6000029007F8011DB8F10001A8F10108F2DC7D
:104A700002980028EFD1791E0E980870307800F067
:104A8000200040F0450007F8020D12A8C01B00F1FD
:104A900007081498007800B1012000EB0A01019882
:104AA00001EBE07105984144401A401E0590E00377
:104AB00006D45B462146179A059800F05DF8054438
:104AC0001498007818B15A46179990476D1CE00366
:104AD00024D55B462146179A059800F04DF8054409
:104AE0001CE00498002807DBDDE90301884203DDB0
:104AF0000098405C179901E0179930205A4690477A
:104B0000049805F10105401C04900198401E019095
:104B100004D12E205A46179990476D1CBAF1000116
:104B2000AAF1010ADDDC05E017F8010B5A461799D6
:104B300090476D1CB8F10001A8F10108F4DC5B4658
:104B40002146179A0598ABE62D0000002B000000C7
:104B5000200000002DE9F041044600251E461746BE
:104B6000880404D405E039462020B0476D1C641E3B
:104B7000F9D52846BDE8F0812DE9F041044600252D
:104B80001E469046C80301D5302700E02027880440
:104B900004D505E041463846B0476D1C641EF9D582
:104BA0002846BDE8F0810000F0B5012193B08805EA
:104BB000FCF722FF01210720FCF71EFF01210D0257
:104BC0002846FCF731FF01214802FCF72DFF0121A7
:104BD0008E023046FCF728FF4148069041480024E9
:104BE000CDE904400320CDE90740E800CDE90A60A3
:104BF0008000CDE90C05099400010E9001250420E8
:104C0000CDE91054384E0F9004A930461294FCF7A9
:104C1000C7FB01213046FCF7B8FBFCF7C7FC1620A8
:104C2000CDE90004A803CDE902046846FBF7BAFE0B
:104C30002E4E04948DF814408DF815500694079468
:104C400008948DF8245004A93046FBF7CBFE0623C8
:104C500001220B213046FBF7FBFE254F04948DF813
:104C600014408DF815500694079408948DF824503C
:104C700004A93846FBF7B6FE06230122092138466F
:104C8000FBF7E6FE04948DF814400694079408940C
:104C9000184C8DF815508DF8245004A92046FBF7C8
:104CA000A1FE0122062311462046FBF7D1FE01207A
:104CB000FBF7BEFE01213046FBF76AFE01213846B4
:104CC000FBF766FE01212046FBF762FE012130461C
:104CD000FBF77EFE3046FBF7F5FE13B0F0BD00009B
:104CE000DE00002008230140106402400020014043
:104CF00000210140002201400844801C704782B01E
:104D0000CDE9000121F0004001909DED000B02B0C3
:104D100051EC100B704700000D4900209FED0D0A6B
:104D20000870086148628862C8628866C866086759
:104D30000864C8634866487181ED1E0A81ED1D0A4A
:104D40008031054AC860401C9042FCD3C86070475F
:104D500020000020000000000059000105490968FA
:104D6000C90105D54FF060410A68002AFCD00870DF
:104D700070470000FCED00E010B553EC112B2DED59
:104D8000048BB0EE429AF0EE629A51EC100BFBF7F6
:104D9000C0FA41EC180B81F0004153EC182BFBF7E3
:104DA000BEFA9FED0F0B41EC180B53EC102B51EC9E
:104DB000190BFBF7B4FA53EC192BFBF7B0FA41ECE3
:104DC000100B51EC180B53EC102BFBF71AFBBDEC3E
:104DD000048B41EC100BBDE81040FEF7E5B9000074
:104DE00000000000000000400148407870470000CB
:104DF000EA00002038B50D4604460121342000F0B9
:104E000051F93B2000F02CF91049487041060F4839
:104E100000F1020016D001214170022221463F20FC
:104E200000F0F2F860782870022269463F2000F016
:104E3000EBF801213A2000F035F99DF8010000F06F
:104E4000800038BD00214170084638BDE8000020D0
:104E500070B5114A93685B1C93600A4601460023B3
:104E60003F2000F049F90021352000F01BF90B4CE0
:104E70004FF4807529462046FCF733FC0028F9D012
:104E800029462046FCF72DFC0028F9D1BDE87040EA
:104E900000213B2000F006B9E8000020001002408D
:104EA00010B50446024600210C2000F06DF90B21DC
:104EB0002246084600F068F9224600210C2000F046
:104EC00063F9224621210D2000F05EF9224662217D
:104ED0000E2000F059F9224676210F2000F054F9F7
:104EE00022462D21102000F04FF922463B211120AF
:104EF00000F04AF922467321122000F045F92246BB
:104F00002221132000F040F92246F821142000F05D
:104F10003BF9224600210A2000F036F922466221A0
:104F2000152000F031F92246B621212000F02CF99D
:104F300022461021222000F027F918212246084697
:104F400000F022F922461D21192000F01DF9224609
:104F50001C211A2000F018F92246C7211B2000F05E
:104F600013F9224600211C2000F00EF92246B2213E
:104F70001D2000F009F92246EA21232000F004F95F
:104F800022460A21242000F0FFF822460021252095
:104F900000F0FAF822461121262000F0F5F822460A
:104FA0005921292000F0F0F8224688212C2000F019
:104FB000EBF8224631212D2000F0E6F822460B21A5
:104FC0002E2000F0E1F822460621002000F0DCF857
:104FD00022460621022000F0D7F807212246084683
:104FE00000F0D2F822460521082000F0CDF8224634
:104FF0000221092000F0C8F82246FF21BDE8104038
:10500000062000F0C1B800002DE9F041DFF848802B
:105010000E4640F0C004154601214046FCF768FBEF
:105020000E4F40213846FCF75CFB0028F9D10021E7
:105030002046FCF75FFD002406E000210846FCF74F
:1050400059FD3055641CE4B2AC42F6D34046BDE88D
:10505000F0410121FCF74EBB000402400000024079
:1050600070B50E4D40F0C00401212846FCF740FB0E
:105070000B4E40213046FCF734FB0028F9D10021CB
:105080002046FCF737FD00210846FCF733FD0446B7
:1050900001212846FCF72EFB204670BD000402408B
:1050A0000000024070B5124D124C0646A1B1012914
:1050B0001DD12846FCF71CFB40212046FCF711FBC4
:1050C0000028F9D100213046FCF714FD2846BDE840
:1050D00070400121FCF70EBB01212846FCF708FBBC
:1050E00040212046FCF7FDFA0028F9D1EAE770BD1F
:1050F00000040240000002402DE9F04140F040046D
:105100001F48204F15460E468BB1012B36D1012189
:105110008046FCF7EDFA40213846FCF7E2FA002819
:10512000F9D100212046FCF7E5FC00241EE0012116
:105130008046FCF7DDFA40213846FCF7D2FA002819
:10514000F9D100212046FCF7D5FC002405E0305DB4
:105150000021FCF7CFFC641CE4B2AC42F7D307E0BB
:10516000305D0021FCF7C6FC641CE4B2AC42F7D30E
:105170004046BDE8F0410121FCF7BCBABDE8F08132
:1051800000040240000002402DE9F041154D164C8C
:105190000E460746CAB1012A22D101212846FCF752
:1051A000A7FA40212046FCF79CFA0028F9D10021FB
:1051B0003846FCF79FFC00213046FCF79BFC284654
:1051C000BDE8F0410121FCF795BA01212846FCF722
:1051D0008FFA40212046FCF784FA0028F9D1E6E74F
:1051E000BDE8F08100040240000002402DE9F041DA
:1051F0008046012188B04804FCF70AFC01210846DA
:10520000FCF7FAFB02208DF814008DF8150000243D
:105210001F4F0C258DF81640012604958DF8176058
:1052200004A93846FCF7FCF9072202213846FCF7AE
:1052300048FA072203213846FCF743FAADF8084044
:10524000ADF80A50134DADF80440CDF80080ADF82C
:105250000640ADF80C4069462846FCF705FF0122E0
:1052600040F225512846FCF7E7FE26208DF818006D
:105270008DF819408DF81A408DF81B6006A8FCF7D0
:105280004FFB01212846FCF7A7FE08B0BDE8F081DE
:1052900000000240004400401FB50D4B0FCB8DE8CD
:1052A0000F00684600F07CF804210320FFF724FD7E
:1052B000014608A0FDF7A2FD0C4900204865032027
:1052C000FCF76AFC0020FCF767FCFCF707FBFEE735
:1052D00020560008526573756C74206F66206164F7
:1052E000646974696F6E3A2025690000200000200F
:1052F00070B506460D4600240AA0FDF77FFD09E0C3
:1053000006EBC40090ED000B07A053EC102BFDF74B
:1053100075FD641CAC42F3DBBDE8704001A0FDF7F5
:105320006DBD00000D0A0000202565200000000072
:1053300000B52DED048B83B041EC190BFBF7ACFAF3
:1053400041EC180B18EE100A18EE901A8DED008B38
:10535000002818BF0120084320F00040C0F17F6002
:1053600000F1E040C00F14D019EE101A19EE900AA7
:105370008DED009B002918BF0121084320F000405B
:10538000C0F17F6000F1E040C00F04BF0120FEF7D4
:10539000BBFF51EC180B03B0BDEC048B00BD00004B
:1053A0002DE9F04F2DED088BF1B0804600249FEDE4
:1053B00066BB67A0FDF722FD08EBC40090ED000B73
:1053C00053EC102B51EC100BFAF7A9FF53EC192BEF
:1053D000FAF7FEFE41EC190B641C022CECDB53ECDB
:1053E000192B64A0FDF70AFDDFF89491B0EE4B8A0B
:1053F000F0EE6B8A00250DF1E00AEB460BEBC504DD
:10540000002684ED00BB0AEBC50700BFC6EBC60152
:1054100009EB411000EBC50090ED00AB53EC1A2BEB
:1054200051EC1A0BFAF77BFF97ED001B53EC112B95
:10543000FAF7CEFEC7E9000108EBC60053EC1A2BC1
:1054400090ED000B51EC100BFAF769FF94ED001B87
:1054500053EC112BFAF7BCFE761C022EC4E90001B6
:10546000D4DB94ED000B9FED471B51EC100B53EC7C
:10547000112BFAF754FF97ED001B53EC112BFAF7A1
:10548000A7FE41EC100B53EC192B84ED000BFAF73F
:105490009FFE9FED3E2BB0EE4B1AF0EE6B1A9FED88
:1054A0003D0BC4E90001FFF767FC94ED001BFEF71C
:1054B00027F83A4884ED000B00EBC50053EC102BA5
:1054C00090ED001B51EC110BFAF729FF41EC100B8A
:1054D000334884ED000B00EBC50053EC102B90ED2E
:1054E000001B51EC110BFAF71AFF41EC100B51ECB9
:1054F000180B84ED000B53EC102BFAF769FE41EC0E
:10550000180B6D1C1C2DFFF679AF1C216846FFF7A8
:10551000EFFE53EC182B23A0FDF770FC53EC1B2B74
:1055200051EC180BFBF70EF801D225A000E029A0E2
:10553000FDF764FC71B051EC180BBDEC088BBDE8B5
:10554000F04FFAF7CDBF000000000000000000009F
:105550004269736D696C6C616820486972205261A0
:10556000686D616E204E69722052616865656D20BC
:105570000A0000006D5831203D2025660000000023
:105580000001002000000000000000C09A999999D5
:105590009999B93F000000000000F03F3056000824
:1055A000C00200204465636973696F6E20566172A2
:1055B0006961626C65203D202565200A00000000BD
:1055C00047756E73686F74204465746563746564B1
:1055D000200A00004E6F697365205369676E616C25
:1055E000200A000000000602030707000100010076
:1055F000040008000100000000000200010000009B
:1056000001000000001000200040008008000000A1
:105610000800000008000000080000000000000072
:10562000666666666666E63F666666666666E63F68
:10563000000000000000F03F000000000000F03F0C
:10564000000000000000F03F000000000000F03FFC
:10565000000000000000F03F000000000000F03FEC
:10566000000000000000F03F000000000000F03FDC
:10567000000000000000F03F000000000000F03FCC
:10568000000000000000F03F000000000000F03FBC
:10569000000000000000F03F000000000000F03FAC
:1056A000000000000000F03F000000000000F03F9C
:1056B000000000000000F0BF000000000000F0BF8C
:1056C000000000000000F0BF000000000000F0BF7C
:1056D000000000000000F0BF000000000000F0BF6C
:1056E000000000000000F0BF000000000000F0BF5C
:1056F000000000000000F0BF000000000000F0BF4C
:10570000000000000000F0BF000000000000F0BF3B
:10571000555555555555C53F7D6FEB0312D6D4BF32
:105720005544880E55C1C93F3B8F68B52882A4BF38
:1057300088B20175E0EF493F09F7FD0DE13D023FF9
:105740004B2D8A1C273A03C0C88A599CE52A004081
:1057500059018D1B6C06E6BF82922EB1C5B8B33FCE
:10576000000000000000E03F000000000000E0BF7B
:105770000000E0FE422EE63F0000E0FE422EE6BFC3
:10578000763C7935EF39EA3D763C7935EF39EABD3B
:105790003E5555555555C53F93BDBE166CC166BFA8
:1057A0002CDE25AF6A56113FF16BD2C541BDBBBEA1
:1057B000D0A4BE726937663E000000000000F03FD2
:1057C000000000000000F83F0000000000000000A2
:1057D0000000004003B8E23F0000000000000000AD
:1057E00006D0CF43EBFD4C3E033333333333E33F3B
:1057F000FFAB6FDBB66DDB3F4D268F515555D53F67
:1058000001411DA96074D13F65DBC9934A86CD3F34
:10581000EF4E454A287ECA3F3E5555555555C53F22
:1058200093BDBE166CC166BF2CDE25AF6A56113F14
:10583000F16BD2C541BDBBBED0A4BE726937663E16
:105840000000000000000000685800080000002070
:105850006C0400003A0900089C5B00086C040020FE
:10586000A42F0000F84200082113024012443A40DD
:10587000082904DA0C0401430808439A99993EC3A5
:10588000F5484C0128A7414E474C453D2A03046288
:10589000015AC001411045BA49BBBA2B87E23FD338
:1058A0003FE98D5880E93F399F1E01FA02DB3FCA6C
:1058B00072D5E6466BCE3FDDABAA258A01EF3FD419
:1058C000168D6B32A9E83F4AC052D786FCDE3F7A7C
:1058D000C5BB72A949CB3F8FA0930610620CCC3F89
:1058E0000562DC84B0576E3F63F5D20A8FDA1D3F44
:1058F0003F9358ADA7B1183FFC9D375F364BC33E71
:1059000014FFFB7C2976B33E5F196547F47C873E24
:10591000284AFFE07555463E7E0CAE9D4E20FB3F6B
:105920006A340F19BC2B024027728E2857F2DC3FD5
:105930001621562E3D22CD3FA3570394869E103844
:1059400040ECC20FCEA782024039C80ACF621904C8
:105950004020625DBEF0A404406BBD5B3023B20505
:1059600040D0FF45ACD20D04409AC5BE76C629078B
:1059700040AF98F588EFE1783940DB1FCFFEA524D2
:10598000C43F45978B86F9E3BB3FA889139F08D096
:10599000BA3FD9DD5FE43594B73F6C24344272449A
:1059A000B33F1FF0F3F16613B43F5666EC796E898E
:1059B000B31878086223A1119223AA302B9A990177
:1059C000102BA93FFCE6296BCED3A53F607EA9CA68
:1059D000B771A73F6FC201506CD5AC3F7CB9A58EA3
:1059E000BB2C973F488D9C94681A9D3F780FD6102A
:1059F000405DE9AD3F0932AC296358B44860D988AD
:105A00005F300676FFB23F7277F97DCF2DC13FF050
:105A10006A8EB3B617CC3F35D82A7A0DE5C53F71EB
:105A20003D0AD7A370CD3F2A018709D0DABE3FB126
:105A300026C8681A1DCE3F5CFACA95D750BE3F12E1
:105A4000CF60F374A5C73F9AF050B67612DD3F3EA3
:105A5000751436EF97D43F3ED4111B876D2740A5B0
:105A6000203D1A8EC81F4011260E9EDE5CEB3FDCE7
:105A7000047550DDAADC3F0F2174F1338F2440738D
:105A80006E2C8B36E515401FC2E68620C71D40628E
:105A9000923E6B864DDE3F6444484E8E06703C94C9
:105AA000F891A4B504793C62D66D7D6E01813CDC31
:105AB00075027860C5C23CAAB2FCB4E2BFDA3F3FCF
:105AC0004A1A13CA114E3F3F23C2D3EC30F03F6C49
:105AD000DBEB3521A3E43F6B344008101E66E04346
