:020000040800F2
:10000000083400209D0100086B180008C91700087B
:1000100069180008A10B0008092D00080000000065
:10002000000000000000000000000000611B00084C
:10003000411300080000000041190008A51D000838
:10004000C3010008C3010008C3010008C301000880
:10005000C3010008C3010008C3010008C301000870
:10006000C3010008C3010008C3010008C301000860
:10007000C3010008C3010008C3010008C301000850
:10008000C3010008C3010008C3010008C301000840
:10009000C3010008C3010008C3010008C301000830
:1000A000C3010008C3010008C3010008C301000820
:1000B000C3010008051E0008C3010008C3010008B1
:1000C000C3010008C3010008C3010008C301000800
:1000D000C3010008C3010008F11E0008C3010008A5
:1000E00069130008C301000811190008C3010008C2
:1000F000C3010008C3010008C3010008C3010008D0
:10010000C3010008C3010008C3010008C3010008BF
:10011000C3010008C3010008C3010008C3010008AF
:10012000C3010008C3010008C3010008C30100089F
:10013000C3010008C3010008C3010008C30100088F
:10014000C3010008C3010008C30100080519000825
:10015000C3010008C3010008C3010008C30100086F
:10016000C3010008C3010008C3010008C30100085F
:10017000C3010008C3010008C3010008C30100084F
:10018000C3010008C3010008DFF80CD000F004FB35
:100190000048004711410008083400200948016860
:1001A00041F470010160084880470848004700009A
:1001B000FEE7FEE7FEE7FEE7FEE7FEE7FEE7FEE717
:1001C000FEE7FEE788ED00E0A91D000889010008B0
:1001D0002DE9FE4F804681EA0300C00F0C460090D7
:1001E00021F0004123F00045B8EB0200A94105D2FF
:1001F0004046214690461C460B46024623F00040EE
:10020000104347D0270DC7F30A00C3F30A510290E9
:10021000401A019040286BDAC3F3130040F4801BAE
:100220000098924620B10023D2EB030A63EB0B0B3C
:1002300001985946C0F14002504600F0E0F90646E8
:100240000D4650465946019A00F0E8F910EB0800B7
:100250006141002487EA115284EAE7731A4340D0CF
:10026000009A62B3019A012A4FEA075215DC001B7B
:1002700061EB02014FF0004202EA0752CDE9004271
:10028000001C41F5801132462B4600F01FFA03B0E6
:10029000BDE8F08F40462146F9E7001B61EB020103
:1002A000001C41F5801300185B412018A2F50017CF
:1002B00047EB030140EAD570B6196D4111E06D08B6
:1002C0004FEA360645EAC0754FEA0752001B61EB5C
:1002D0000201001C41F5801149084FEA3000001965
:1002E000514132462B4603B0BDE8F04F00F0DFB974
:1002F0000098012240000023D0EB020263EBE07380
:10030000009821464FEAE074B8EB000061EB04016D
:10031000E9E783F000435BE781F0004158E72DE90E
:10032000FE4F81EA030404F0004421F000410094F0
:100330004FF0000B23F0004350EA01045ED052EA74
:1003400003045BD0C3F30A54C1F30A552C44A4F24E
:10035000F3340194A0FB0254C1F3130141F4801162
:10036000C3F3130343F4801301FB024400FB034E69
:10037000840A970A44EA815447EA8357A4FB076832
:1003800002958D0A05FB07854FEA932C04FB0C545C
:100390002705029D4FEA065847EA1637B5EB0805D0
:1003A0006EEB070C870E920E47EA811742EA831222
:1003B000A7FB0201B6EB0B0164EB00042B0D43EA33
:1003C0000C335E1844EB1C50DA465146E7FB020141
:1003D000C5F313044FEA0B3343EA14534FEA0432D4
:1003E000019C43EA0603A4F10C040294009CCDE9AD
:1003F00000B400F06BF903B0BDE8F08F00200146B7
:10040000F9E72DE9F04D81EA030404F0004B21F0F7
:10041000004514464FF0000A23F0004150EA05025F
:1004200020D054EA01021DD0C5F30A570246C5F395
:100430001303C1F31300C1F30A5640F4801543F4CB
:100440008013A7EB0608101BD64608F2FD3873EBA5
:10045000050002D308F1010801E092185B41B8F1F0
:10046000000F03DA00200146BDE8F08D00204FF4B4
:100470008011064684460EE0171B73EB050705D373
:10048000121B63EB050306434CEA010C49084FEAD3
:10049000300092185B4150EA0107EDD152EA0300A7
:1004A00012D082EA040083EA0501084305D0101B3C
:1004B000AB4106D20122002306E000224FF00043A8
:1004C00002E06FF0010253101AEB06004CEB0851EA
:1004D00010EB0A0041EB0B01BDE8F04D00F0E7B86E
:1004E00000F0004230F000400AD0C10D01F560710B
:1004F000C0F3160042EA0151C20840071143704799
:10050000002001467047000030B5041E71F1000460
:1005100004DB4FF00044404264EB0101141E73F110
:10052000000405DB1C464FF00043524263EB04031A
:10053000994208BF904230BD01F0004330B421F031
:10054000004150EA010206D00A0DA2F56072C1F323
:100550001301002A02DC30BC00207047440F44EA3B
:10056000C104C100E01830BC00EBC25000F068B814
:1005700030B50B46014600202022012409E021FA73
:1005800002F59D4205D303FA02F5491B04FA02F570
:100590002844151EA2F10102F1DC30BD2DE9F05F07
:1005A0000546002092469B468846064681464024E2
:1005B0001BE0284641464746224600F0FFF85346D6
:1005C0005A46C01A914110D311461846224600F0EF
:1005D00016F82D1A67EB01084F462246012000212C
:1005E00000F00DF817EB00094E41201EA4F10104A4
:1005F000DFDC484631462A464346BDE8F09F202AC4
:1006000004DB203A00FA02F1002070479140C2F169
:10061000200320FA03F3194390407047202A06DB99
:10062000CB17203A41FA02F043EAE07306E041FAC0
:1006300002F3D040C2F120029140084319467047AE
:100640000029A8BF7047401C490008BF20F00100E6
:10065000704710B4B0FA80FC00FA0CF050EA0104C4
:1006600004BF10BC704749B1CCF1200421FA04F456
:1006700011FA0CF118BF012121430843A3EB0C012F
:10068000CB1D4FEA00614FEA102042BF002010BC92
:10069000704700EBC35010440029A4BF10BC704742
:1006A000401C490008BF20F0010010BC704710B585
:1006B000141E73F1000408DA401C41F10001921885
:1006C0005B411A4301D120F0010010BD2DE9F04D2E
:1006D00092469B4611B1B1FA81F202E0B0FA80F283
:1006E00020329046FFF78BFF04460F4640EA0A008F
:1006F00041EA0B0153465A46084313D0114653EAC8
:10070000010019D0C8F14002504600F057F80546E4
:100710000E46504659464246FFF771FF084305D042
:10072000012004E020463946BDE8F08D0020054355
:1007300046EAE0762C4337430A986305E40AA0EBC7
:1007400008000022FD0A44EA47540A3002D500207E
:100750000146E9E7010510196941DDE9084500197D
:100760006941BDE8F04DA2E7C1F30A52C1F313019C
:1007700040F2FF3341F480119A4202DA0020014630
:10078000704740F233439A42A2F2334202DC5242B3
:1007900000F014B8FFF733BF064C074D06E0E068E1
:1007A00040F0010394E8070098471034AC42F6D3B8
:1007B000FFF7EEFCB8430008D8430008202A04DB0A
:1007C000203A21FA02F00021704721FA02F3D040CA
:1007D000C2F1200291400843194670472DE9F04DBF
:1007E00000231A461B1A8A4103DB00200146BDE89C
:1007F000F08DC1F30A52C1F3130141F480154FF09B
:10080000000BD10702D100186D41521E002704468B
:1008100040F2FF11384601EB620A3E46804602462E
:1008200000204FF48011FFF7C9FFC2197141BB18B6
:1008300046EB0100B4EB030C75EB000C04D3E41A97
:1008400065EB000517460E46241908F101006D41BD
:1008500080463428E3DDF91946EB0600091BA84160
:1008600003D24FF0FF32134601E0002213461BEB88
:10087000070046EB0A51BDE8F04DFFF718BF70B511
:100880008C1810F8015B15F0070301D110F8013B3B
:100890002A1106D110F8012B03E010F8016B01F8C2
:1008A000016B5B1EF9D12B0705D40023521E0DD41A
:1008B00001F8013BFAE710F8013BCB1A921C03E068
:1008C00013F8015B01F8015B521EF9D5A142D8D3A0
:1008D000002070BD0029816802D041F0010101E0D3
:1008E00021F0010181607047084B10B5D3F8042353
:1008F00007490A40D0E900142143D0E902400443EB
:1009000021431143C3F8041310BD0000002001402F
:10091000E030FCFF0029816802D041F4807101E0E1
:1009200021F480718160704730B542680F4B0C79BB
:100930001A400B6842EA04221343436082680C4B5E
:100940004D791A40D1E9034323438C6844EA4504B6
:10095000234313438360C26A097D22F47002491E57
:10096000C9B242EA0151C16230BD0000FFFEFFFC86
:10097000FDF7FFC006490028D1F8040302D040F477
:10098000005001E020F40050C1F80403704700005B
:100990000020014070B5072409290AD9C568A1F1D2
:1009A0000A0606EB4606B440A543B3401D43C560A6
:1009B00007E0056901EB4106B440A543B3401D4380
:1009C00005611F23072A09D2446B521E02EB8202E3
:1009D00093409C4391400C43446370BD0D2A09D25F
:1009E000046BD21F02EB820293409C4391400C4364
:1009F000046370BDC46A0D3A02EB820293409C43CB
:100A000091400C43C46270BD816841F080418160B7
:100A1000704700000748084A90ED040A10EE101ACB
:100A2000914205DDDFED050A30EE600A80ED040A33
:100A300070470000A00000200000B4430000B44351
:100A400070B52A4D4FF00006A86CA0F2F31040429A
:100A500028676E7104D5C043401C28670120687167
:100A6000286F40F24D11484300EE100A9FED201A06
:100A70001E4CF8EEC00A95ED140A803420EE011ADF
:100A800080EE810A10EE100A84ED000AB0F17E5F5C
:100A900002DDB7EE000A06E010EE100A10F1814FF9
:100AA00003D9BFEE000A84ED000A10EE100AFFF72A
:100AB00017FD41EC100B02F057F951EC100BFFF74A
:100AC0003BFD00EE100ADFED0B0AD5ED151A20EE06
:100AD000201A81EE210A84ED010A6879012804D1E7
:100AE00030EEC00A6E7184ED010A70BD2000002056
:100AF00000C82F4700003443264901229FED260AF3
:100B0000CB7C01F18000012B0AD0022B0FD0042BEB
:100B100014D0082B19D0102B1FD0202B31D023E05C
:100B2000D0ED040A30EE600A80ED040A13E0D0ED47
:100B3000040A30EE600A80ED040A14E0D0ED020AE7
:100B400030EE600A80ED020A21E0D0ED020A30EEBC
:100B5000600A80ED020A8A7406E0D0ED030A30EEE6
:100B6000600A80ED030A0A74497C002908D000BF9E
:100B700090ED020ADFED090A30EE200A80ED040A4A
:100B80007047D0ED030A30EE600A80ED030A4A7424
:100B9000EEE70000200000200000B4430000704396
:100BA000FEE7000070B588B00121132000F0CAFEF6
:100BB00002258DF804500024E0208DF806402D4ECB
:100BC00000908DF807408DF805506946304600F0DA
:100BD000CDFC05221146304600F019FD0522062104
:100BE000304600F014FD05220721304600F00FFDCD
:100BF00001268DF804608DF806408DF80760009698
:100C00008DF8055069461C4800F0B0FC4FF4A06018
:100C10008DF8044000908DF806408DF80550694627
:100C2000164800F0A3FC0121080300F0A3FEADF874
:100C300008404FF48270ADF80A00ADF81060280249
:100C4000ADF812000820ADF81400ADF80C40ADF876
:100C5000164007200A4CADF81800ADF80E5002A956
:100C6000204600F022FF0121204600F0DFFE08B000
:100C700070BD00000000024000040240001002406D
:100C80000030014070B5204D0121284600F0D8FC0D
:100C90001E4C2021204600F0D3FC8021204600F08D
:100CA000CDFC41F2883000F04CFB0121284600F0D9
:100CB000C7FC012000F045FB0121284600F0BEFCE6
:100CC000012000F03EFB0121284600F0B9FC29205C
:100CD00000F037FB0121284600F0B0FC40212046FF
:100CE00000F0A5FC0028F9D10021302000F0A8FE7A
:100CF0004021204600F09BFC0028F9D12846BDE8A1
:100D00007040012100F09CBC000402400000024041
:100D100010B50D49FF2803D9FF228A70401C01E05D
:100D200088700020C87008490023082208313E203E
:100D300003F01EF90021362003F0F0F8BDE8104062
:100D40000621014802F0C0BF8803002009484FF483
:100D5000FA71026BB2FBF1F2521C4267426BB2FBBA
:100D6000F1F2521C8267826BB2FBF1F1491CC16740
:100D700070470000200000202DE9F04F8A46814690
:100D80000126DFF8A4B0294B01F2F31100F2F310B1
:100D900000254FF4FA7E0C4600220AE019F9027091
:100DA00011F901CBD3F85C8017FB0C87521C92B26F
:100DB000DF65B242F2D3DA6D611E761C4BF8252056
:100DC000002A04DBDC6C944201D2C3E912520024F5
:100DD0006D1CADB2DC657545DDD3012640F2E6320F
:100DE000054600210BE000BF1AF9017010F901CB94
:100DF000D3F85C8017FB0C87491C89B2DF65B142D0
:100E0000F2D3D96D681E761C4BF82210002904DB42
:100E1000DD6C8D4201D2C3E91221521E92B2DC6513
:100E20007245DDD2BDE8F08F28120020200000209E
:100E30000A4610B5090602F07F0306D503EB8301CD
:100E400000EBC10101F58E7105E002EB820100EBC0
:100E5000C10101F55D7100248C700B70D2094A70DC
:100E600001F009FE002010BD70B50C460E0601F021
:100E70007F0505EB850100EBC10102D501F58E71FF
:100E800001E001F55D71E4090D704C708A60CB7072
:100E900000D0CD80022B01D100220A7101F0C2FDE9
:100EA000002070BD10B501F07F0404EB840100EB5D
:100EB000C101C1F88833C1F880230023C1F88C3305
:100EC00081F8753381F87443C37801F55D71012BA6
:100ED00000D10A6114F0FF0F03D001F0FDFD0020E6
:100EE00010BD01F031FDFAE70069002261F30A123A
:100EF00001681143016070470A4610B5090602F007
:100F00007F0306D503EB830100EBC10101F58E7170
:100F100005E002EB820100EBC10101F55D710124E6
:100F20008C700B70D2094A7001F0BEFD002010BD1C
:100F300070B511F07F0404EB840100EBC1014FF0A8
:100F4000010581F81D5181F81C41C1F82821C1F823
:100F50002C2101F58E714FF00002C1E9053203D05A
:100F600001F0BAFD002070BD01F0EEFCFAE70000D0
:100F70002DE9F0410646002501F07FFE074655E0C9
:100F8000F80751D03069EAB20369416BD14006EBF2
:100F9000820201F00101926943EAC11194680C4098
:100FA000E1071AD00124426B04FA05F18A43426337
:100FB00006EB8500806984601F48E9B200684268DA
:100FC00030469047F078012807D135B996F81101DD
:100FD000042802D1304601F013FD200704D506EBAA
:100FE0008500082480698460E00604D506EB85004E
:100FF000102480698460600604D506EB85004024D7
:1010000080698460A00704D506EB8500022480690E
:101010008460200608D52946304600F01DF906EB0D
:1010200085018020896988607F086D1C002FA7D109
:101030000120BDE8F0810000D40300202DE9F0413B
:101040000646002401F01FFE0746DFF8988043E0C3
:10105000F8073FD0E1B2304601F01BFE0546C0075D
:1010600025D006EB84000125416D8D60F1780129C2
:101070000CD1406D016904EB840006EBC000C1F3A4
:101080001201D0F87C23511AC0F88C13D8F8000054
:10109000E1B2026830469047F078012807D134B9B0
:1010A00096F81101052802D1304601F0A9FCA807E5
:1010B00004D506EB84000225406D8560280709D51C
:1010C000D8F8000081683046884706EB8401082084
:1010D000496D88607F08641C002FB9D10120BDE8EC
:1010E000F0810000D403002070B50646C068816915
:1010F00021F010018161F068056A05F00F0000EB36
:10110000800006EBC004C5F3434004F55D74072876
:1011100021D2DFE800F0202004202020150047F62F
:10112000F070054217D0C5F30A152A463046E1682B
:1011300001F0B7FDE0682844E060A069284409E0B8
:10114000082206F2CC51304601F0ABFDA069C5F390
:101150000A110844A061F068816941F010018161C1
:10116000012070BD38B5044600208DF8000094F8C9
:1011700012018DF800001548006841692046884733
:1011800020698068E2684FF400615161A17AD1B1B1
:10119000C00718D094F81501012814D19DF800005B
:1011A000032810D1D4F80C01016841F0010101605D
:1011B000D4F80C01016841F00301016004480168A2
:1011C00041F006010160012038BD0000D403002079
:1011D00010ED00E070B50446006900250126416865
:1011E00021F0010141602946204601F005FD002063
:1011F000FF2106E004EB800293699960526D9160D3
:10120000401C62788242F5D821694FF0FF30886136
:101210002846216966F30F0066F31F40C861216903
:1012200045F00B004861216945F00B000861206919
:10123000016821F4FE610160204601F0E1FBE168F4
:101240004FF4805048610348006801692046884790
:10125000012070BDD40300202DE9F0470D4606465D
:1012600001EB850006EBC004D4E94C01421AD4F826
:10127000240104F58E74904200D20246D21C9708D5
:1012800006EB850918E000BFA0EB0108A068404507
:1012900000D2804608F1030087081FFA88F3EAB2FB
:1012A0003046E16801F01CFDE16801EB0800E060F8
:1012B000A16901EB0800A061D9F81800806980B22B
:1012C000B84205D9D4E90501814201D20028DBD119
:1012D0000120BDE8F0870029016802D041F001013A
:1012E00001E021F0010101607047000030B50368A2
:1012F000124ACC6813400A682243D1E905452C43C1
:101300002243CC6922430C6A22434C6A22438C6AF2
:1013100022434C6B22438C6B22431A430260426986
:1013200022F00703D1E90B2422431A4342610A69E0
:1013300042604A6882608968C16030BD3F801CF0AD
:101340007047002104E00222521C0A2AFCDB491CDF
:101350008142F8D37047000000220121014800F0CB
:1013600080BD00000004004010B54FF480642046AA
:1013700000F028F800281CD0204600F01DF800F0EE
:101380004DFB02F06DFC0B490128487511D100207E
:101390004875012000F0D6FB002000F0D3FB0220AE
:1013A00000F0D0FB002002F0B7FCBDE8104000F0D8
:1013B0004DBA10BD200000200149086070470000B0
:1013C000143C0140064A014600201268044B0A40C2
:1013D00014331B680B4202D0002A00D00120704752
:1013E000003C014001221146014800F03ABD0000D6
:1013F00000040040F0B53748002500F18001C572B7
:101400000A46354C0B690926DFF8D0E0D268A342C2
:1014100001DA312302E0A34202DD0E23C37311E09F
:101420002F4BC57306759A4204DA032303759FEDAB
:101430002D0A05E0724505DD06239FED2B0A037595
:1014400081ED040A8B689FED290A294FA34202DA35
:101450004FF0070C03E0A34204DD4FF0380C80F896
:101460000DC015E0DFF88CC0057362450ADD4FF052
:10147000010C80F814C0D1ED040A70EE600AC1EDD1
:10148000040A05E0BA4203DA4FF0040C80F814C0F5
:10149000A24201DA1C2102E0A24202DD2321817373
:1014A00010E005730675734502DD0221017509E040
:1014B000BB4207DA05220275D1ED040A30EE600A5C
:1014C00081ED040A417B827B1140C27B1140C174D3
:1014D000F0BD0000200000200000B4420000F042F7
:1014E0000000F0410000B442000087430000B44314
:1014F000000070420000164370B588B00325022634
:101500008DF80C50002402968DF80F4002A9134864
:1015100000F02CF88DF8145004968DF8174004A9AB
:101520000F4800F023F88DF81C5006968DF81F40E8
:1015300006A90C4800F01AF86803009001208DF805
:1015400004008DF806408DF805508DF80740694677
:10155000054800F00BF808B070BD0000000802401C
:101560000004024000000240000C0240F0B50023DD
:10157000012403270D6804FA03F21540954242D175
:10158000D0F800C05E0007FA06F52CEA050CC0F89A
:1015900000C091F804C0D0F800E00CFA06FC4CEA58
:1015A0000E0CC0F800C091F804C0BCF1010F02D0CD
:1015B000BCF1020F1FD1D0F808C02CEA050CC0F80E
:1015C00008C091F805C0D0F808E00CFA06FC4CEA17
:1015D0000E0CC0F808C0D0F804C02CEA020CC0F809
:1015E00004C0426891F806C00CFA03FC1FFA8CFC98
:1015F00042EA0C024260C268AA43C260CA79C56866
:10160000B2402A43C2605B1C102BB3D3F0BD4B0722
:10161000DB0E9A40C90810B500EB8100016A0F2467
:101620009C40A1430162016A1143016210BD024660
:10163000002012690A4200D00120704741837047A0
:101640000183704709490A88A1F1A20042664A88CD
:1016500082668988C166416E09098170816E0909B7
:10166000C170C16E0909017170470000C2000020FD
:1016700070B5494C4FF4FA752DED028B207880B986
:10168000A078E16B884207D8E078216C884203D8C3
:101690002079616C88421BD9032000F053FA0120A5
:1016A0002070E169A94213DA3C4AA0785054226BB9
:1016B00010443B4A2063E0785054626B1044394A2E
:1016C000606320795054A26B491C1044E161A0630F
:1016D000E069A8425AD1FFF73FFE00F043FAFFF756
:1016E00035FB00F035FB2E492C48FFF745FB002663
:1016F000E664E665FFF7A4F9274D9FED2B8A803558
:10170000284995ED010A264885ED020A85ED018AF2
:10171000FFF732FBE664E665FFF792F995ED010A03
:101720001E4985ED030A85ED018A1E48FFF724FB5B
:10173000E664E665FFF784F995ED010A1B4E85ED39
:10174000040ABDEEC00A304610EE101A00F090FCFC
:101750000A21304600F08CFC2869FEF7C1FE41ECFE
:10176000100B13A053EC102B01F0EEFA00F0A0FACE
:101770002869FEF7B5FE41EC100B0DA053EC102BC1
:1017800001F0E2FA02F03CFAFFF72CFEA069401CDF
:10179000A061BDEC028B70BD200000207C04002005
:1017A0007006002064080020000000000044004093
:1017B000536F7572636520416E676C6528333129FC
:1017C000203D202566200A00FEE7000038B51D20D8
:1017D0008DF8000000248DF8014001208DF80200F2
:1017E0008DF80300684600F041F80121022000F066
:1017F000B5F80B48152141605321018004814480D4
:10180000084C0146204600F035FB012211462046D7
:1018100000F027FB0121204600F00DFB38BD000041
:10182000700400200004004010B502F041F94FF4AC
:10183000165002F017FCFFF7C9FFFFF7B3F9FFF7E7
:1018400021FABDE81040002002F066BA10B5002071
:1018500002F062FA0122BDE810401146014800F092
:1018600000BB0000000C0040FEE7704730B50F22BF
:10187000C47801780123FCB1144C246801F1E02103
:1018800004F4E064C4F5E064C4F30724C4F104057F
:10189000E2404478AC408578154025432A0181F820
:1018A0000024007800F01F018B404009800000F107
:1018B000E020C0F8003130BD01F01F00834048092E
:1018C000800000F1E020C0F8803130BD0CED00E078
:1018D0000B4881788165426A914200D94162C178A2
:1018E0008165826A914200D9816201798165C26A0B
:1018F000914200D9C1628169491C81617047000031
:1019000020000020014800F039BD0000C421002063
:10191000094810B5807A48B10848016821F00601ED
:10192000016000F041FA044801F0CBF9BDE8104035
:101930004FF48020FFF740BDC421002010ED00E0EF
:1019400070470000044A0029116801D0014300E0FB
:10195000814311607047000030380240044A00297A
:10196000116801D0014300E081431160704700001D
:1019700040380240044A0029116801D0014300E0C8
:1019800081431160704700004438024070B5204A1E
:101990001168204C11F00C0104D06610042903D00A
:1019A000082903D004601BE0066019E01849091FEC
:1019B0000B68C3F380550B6803F03F0315B1B6FB0A
:1019C000F3F301E0B4FBF3F30C680968C4F3881483
:1019D0006343C1F30141491C4900B3FBF1F10160CC
:1019E00011680F2303EA11110B4B5C5C0168E140A5
:1019F00041601468072505EA94241C5D21FA04F46B
:101A00008460126805EA52329A5CD140C16070BDB0
:101A1000083802400024F4009803002001490248DD
:101A200002F024B984030020B8270020002901888F
:101A300002D041F0400101E021F0400101807047F7
:101A400070B5134C054619B101290CD0002070BDAA
:101A50000146204600F027F80121204600F01AF840
:101A60000028F9D00FE00221204600F013F80028EA
:101A7000F9D02946204600F016F80121204600F052
:101A800009F80028F9D0204600F00BF8C0B270BD6C
:101A9000003001400246002012890A4200D0012095
:101AA0007047808970478181704730B502884C88C3
:101AB00002F441530A88CD8822438C882C43224368
:101AC0000C8922434C8922438C892243CC892243AE
:101AD0001A430280828B22F400628283098A018287
:101AE00030BD00001CB504460E48012150F824000A
:101AF000FFF728FF0B480021083830F81400009049
:101B000001208DF804008DF806108DF807000220E2
:101B10008DF805000448694650F82400FFF726FDBB
:101B20001CBD000048430008100000200349044A7F
:101B300031F8101052F8200001837047404300082C
:101B400010000020044951F820104A69034B33F873
:101B5000100042404A6170471000002040430008D6
:101B6000704700002DE9F041114F124D00244FF451
:101B7000FA763957284600F07BFA641CA4B2B442C6
:101B8000F7D30D4F00242846395700F071FA641C32
:101B9000A4B2B442F7D3094F00242846395700F0C5
:101BA00067FA641CA4B2B442F7D3BDE8F081000028
:101BB0007C040020004400407006002064080020DF
:101BC0000CB500202749019000900A6842F4803249
:101BD0000A604FF4A0430A6802F400320092019AAE
:101BE000521C0192009A12B9019A9A42F3D10A68E2
:101BF000920334D5012000901A484030026842F028
:101C0000805202601848026842F44042026015485F
:101C1000083002680260026842F400420260026812
:101C200042F4A0520260031F104A1A600A6842F090
:101C300080720A600A689201FCD50D4A40F2056183
:101C40001160016821F003010160016841F00201A7
:101C500001600168C1F381010229FAD10CBD009035
:101C60000CBD0000003802400070004008544007DE
:101C7000003C02400D48416A01EB41018A000A2103
:101C8000B2FBF1F2C263826A02EB42029200B2FB43
:101C9000F1F20264C26A02EB42029200B2FBF1F17D
:101CA00041648169491C8161704700002000002067
:101CB00010B5FFF79FFBFEF71FFFFEF7ABFE0648D0
:101CC00090ED040ABDE81040BCEEC00A10EE100A08
:101CD00080B2FFF71DB80000A0000020164B10B521
:101CE000587830B10020FFF721FFBDE81040FFF722
:101CF000BFBC986941F28831884203DCBDE81040DE
:101D000000F01EB8A0F598518939B1F5FA7F09D2D3
:101D1000FFF7DEFD094A186A997842F82010401C46
:101D2000186210BDA0F5A8517D39FAD1FFF7A2FFC6
:101D30000120587010BD000020000020580A00202B
:101D400002488169491C8161704700002000002021
:101D5000F0B5124900204FF4FA77D1E91D54CE6F47
:101D60000F4901F5FA7201F57A7300BF11F800C04E
:101D7000ACEB050C01F800C012F800C0ACEB040C91
:101D800002F800C013F800C0ACEB060C03F800C06A
:101D9000401C80B2B842E9D3F0BD00002000002012
:101DA0007C04002070470000124810B5016841F41F
:101DB000700101601048016841F0010101600E4AA4
:101DC00000210832116002680C4B1A400260031DAA
:101DD0000B4A1A60026822F48022026006480C3026
:101DE0000160FFF7EDFE03494FF0006080390860A5
:101DF00010BD000088ED00E000380240FFFFF6FE55
:101E00001030002410B5094C0121204600F01DF8C7
:101E1000002809D00121204600F00AF8FFF712FC43
:101E2000BDE81040FFF75ABF10BD0000000400409D
:101E3000C943018270470029018802D041F00101A5
:101E400001E021F001010180704702460020138A61
:101E500092890B4202EA010202D0002A00D001203E
:101E60007047002A828901D00A4300E08A438281B8
:101E70007047000030B50288164B174C98420DD0C1
:101E8000A0420BD0B0F1804F08D0144DA84205D02D
:101E9000134DA84202D0134DA84203D122F0700581
:101EA0004A882A43104DA84206D0104DA84203D0BC
:101EB00022F440750A892A4302804A68C2620A886D
:101EC0000285984201D0A04201D1897A0186012180
:101ED000818230BD00000140000401400004004048
:101EE00000080040000C00400010004000140040BA
:101EF00010B50B4C40F22551204600F024F818B1E3
:101F00000021084600F002FF0821204600F014F8E6
:101F1000002804D02046BDE8104000F0A1B810BD54
:101F2000004400400029818902D041F4005101E0C1
:101F300021F40051818170470246002012880A4234
:101F400000D00120704730B501F01F0201240025A8
:101F5000C1F3421304FA02F2012B0FD0022B0FD06F
:101F6000838A4FEA11210088134204FA01F400EA3F
:101F7000040001D000B10125284630BD8389F0E777
:101F8000038AEEE710B5C1F3421301F01F040121EB
:101F9000A140012B07D0022B07D01430002A026881
:101FA00005D00A4304E00C30F8E71030F6E78A4326
:101FB000026010BD7FB50446008A0D4620F44051F2
:101FC000E88808432082A08941F20C618843A988EF
:101FD0002A8911436A8902431143A181A08A20F40E
:101FE0004071A8890843A0826846FFF7CFFC1A48D1
:101FF000844202D01948844201D1039800E002983B
:10200000A189090400EBC00101EB0010296801D58A
:10201000490000E08900B0FBF1F26420B2FBF0F16E
:1020200009010B096FF018056B4302EB8302A389CA
:102030001D044FF0320306D503EBC202B2FBF0F0F1
:1020400000F0070005E003EB0212B2FBF0F000F035
:102050000F00084320817FBD0010014000140140A3
:102060008088C0F308007047C1F308018180704781
:1020700003B401884906FCD5019902B089B2FFF783
:10208000F3BF10B5D0F8E42552689047002010BD8A
:1020900010B5134600240A462146FEF703FF2046EA
:1020A00010BD10B5134600240A462146FEF740FF36
:1020B000204610BD10B504468021FEF71DFF00210B
:1020C0002046FEF719FF2046BDE8104000F098BCFE
:1020D00070B505460024052085F8110123462246E7
:1020E00021462846FEF7DEFE284600F089FC204601
:1020F00070BD10B5C0F83C210223C0F8382180F82B
:102100001131134600240A462146FEF711FF2046EE
:1021100010BD70B505460024042085F81101234642
:10212000224621462846FEF703FF284600F068FCB9
:10213000204670BD70B5054641B1D5F8E405426949
:102140008AB395F81201032846D047E095F81101AB
:10215000002605F58E74022833D1E169A06881421A
:102160000FD9081AE061E878012803D1D4E90210F8
:102170000844E060A08BE16882B22846FFF791FF37
:102180001FE0216AB1FBF0F200FB121262B981423A
:102190000AD3606A814207D2002211462846FFF71F
:1021A00080FF66620DE016E0D5F8E405C16829B14C
:1021B00095F81201032801D1284688472846FFF7E1
:1021C00087FF95F81601012808D10548006829699C
:1021D000486085F8166101E028469047002070BDF0
:1021E000D803002070B5054641B1D5F8E4058269F1
:1021F0000AB395F8120103282CD02DE095F81101AF
:1022000005F55D74032827D1E169A068814213D9DF
:10221000081AE061E878012803D1D4E902100844E3
:10222000E060E169A068814200D2084682B2284697
:10223000E168FFF72DFF0FE0D5F8E405016929B14A
:1022400095F81201032801D1284688472846FFF750
:1022500060FF01E028469047002070BD10B504469D
:10226000D0F8E80540698047012084F81501002076
:1022700010BD10B50446D0F8E80580698047D4F851
:10228000E4050021426820469047002084F81501AB
:1022900010BD38B5044648880D46010A04295AD2B3
:1022A000DFE801F059021420D4F8EC15A0780A6890
:1022B000694690470146E888402803D094F8120107
:1022C000012837D10820ADF8000037E0D4F8E41534
:1022D000A0788A6A69469047014602204870C4F88F
:1022E000F01527E0C0B2062835D2DFE800F0030879
:1022F0000D12171CD4F8EC15A0784A6817E0D4F832
:10230000EC15A0788A6812E0D4F8EC15A078CA68B9
:102310000DE0D4F8EC15A0780A6908E0D4F8EC15C3
:10232000A0784A6903E0D4F8EC15A0788A69694678
:1023300090470146BDF8000000280BD0EA88002A2B
:1023400008D080B2824200D90246ADF80020204673
:10235000FFF7CFFE38BD29462046FFF7ABFE38BD5C
:1023600010B5D0F8E415096A8847002010BD10B5F3
:10237000D0F8E415496A8847002010BD2DE9F047E0
:102380000446002500F06BFC00287DD0204600F0BC
:102390006FFC060079D0300303D52046FEF74EFED1
:1023A0000546700303D52046FEF7E2FD0543B0075E
:1023B0004FF0000A02D5E168022048614C4F4FF00F
:1023C0000109002E17DAA07A30B1D4F80C01D4F844
:1023D0000C1120F0030008602069416821F0010120
:1023E00041603868816920468847E1684FF00040C5
:1023F000486145F00105300503D52046FEF7B2FEE1
:102400000543300708D53868C16820468847E16829
:102410000820486145F00105F00603D52046FEF787
:1024200063FE0543F00403D52046FEF7D3FE0543C3
:10243000B0041AD5204600F069FAE068D0F80C80A4
:10244000204600F0F9FB032847D084F80290402191
:1024500028F47050A18000F5A050E168C860E168E0
:102460004FF40050486145F00105F00209D5386885
:10247000C16920468847E1684FF48010486145F003
:102480000105B0020CD501E024E024E03868016ABF
:1024900020468847E1684FF40010486145F0010587
:1024A000700009D53868416A20468847E1684FF0D6
:1024B0008040486145F0010570070BD5E06846682B
:1024C000700703D53868816A20468847E06846600F
:1024D00045F001052846BDE8F08784F802A04FF4D6
:1024E000007128F47050A18000F51050B5E700008D
:1024F000D403002090F8CC250A7090F8CD254A70BE
:1025000090F8CE2590F8CF3502EB03224A8090F860
:10251000D02590F8D13502EB03228A8090F8D2259D
:1025200090F8D33502EB032292B2CA800121C0F8A1
:10253000402180F81111704710B500230446402255
:102540001946FEF791FC0023402280212046FEF729
:102550008BFC012084F81201D4F8E815A0784968B2
:102560008847002010BD10B50446D0F8E805006982
:102570008047032084F81201002010BD10B5D0F868
:10258000E415C96901B18847002010BD10B50446A3
:10259000D0F8E405026820469047D4F8E805806842
:1025A0008047002010BD000070B50A461A4D89789A
:1025B00004462970012905D894F81201022807D091
:1025C00003280CD02046BDE870401146FFF772BDCD
:1025D000A1B184F81011032084F812010BE091B12D
:1025E00094F81001884209D001462046FFF749FDC2
:1025F000297884F810112046FFF7C8FF2046BDE86F
:102600007040FFF786BD022084F8120184F8101193
:102610002046FFF736FDF1E7DC03002010B5044645
:102620004888012201280FD0022831D1888810F073
:10263000FF0F2DD121694968000A06281FD2DFE863
:1026400000F01E0B0F13171BC4F81821D4F8E40573
:1026500082682046904716E021F0700110310EE0AC
:1026600021F0700120310AE021F07001303106E0E4
:1026700021F07001403102E021F070015031054835
:10268000016084F816212046BDE81040FFF741BDE7
:1026900010BD0000D80300201CB504466946FFF7B2
:1026A00029FF9DF8001011F01F000AD001280DD05D
:1026B000022810D001F080012046FEF71DFC00200A
:1026C0001CBD6946204600F00BF8F8E76946204635
:1026D00000F0E8F8F3E76946204600F079F8EEE705
:1026E0002DE9F0414A78002701260A2A42D2DFE884
:1026F00002F03B554152410805412A27FFF7C9FD29
:1027000061E004468888C8B9C888B8B9887800F0FC
:102710007F0594F81201032810D084F8145129463B
:102720002046FEF7E1FB2046FFF7F3FC1DB1022037
:1027300084F8120147E084F8126144E0204619E071
:10274000FFF732FF3FE0CA88012A13D190F8122127
:10275000022A02D0032A0DD102E001221B4917E010
:10276000012200F5887113E090F81221022A04D0AA
:10277000032A02D0FFF79EFC25E014490839CE60F9
:10278000D0F818210AB10322CA6010490222091D9B
:10279000FFF7AFFC17E0FFF741FF14E0044690F8A5
:1027A0001201022801D00328C8D1488801280AD183
:1027B0000020C4F81801D4F8E40582682046904748
:1027C0002046FFF7A6FC3846BDE8F081E403002070
:1027D00070B50D46044609796878002658B301287B
:1027E00016D0032831D194F8120102282FD00328E3
:1027F00027D1688828B921B1802902D02046FEF768
:102800007BFBD4F8E40529468268204690470EE019
:1028100094F8120102281AD0032812D16888A0B9AE
:1028200029B1802903D02046FEF702FBE9E72046C4
:10283000FFF76FFC09E094F81201022807D0032883
:102840000DD029462046FFF735FC304670BD0029E3
:10285000FBD08029F9D02046FEF74EFBF5E7104863
:102860000D064FF000034FF0010208D501F07F0183
:1028700001EB810104EBC10191F81E1105E001EBB0
:10288000810104EBC10191F8761309B1426000E0C7
:10289000436003490222091D2046FFF72AFCD4E7C2
:1028A000DC03002070B5054690F8120100260C46A6
:1028B00003280DD1207901280AD8D5F8E4058268CB
:1028C00028469047E08830B92846FFF722FC02E00E
:1028D0002846FFF7EFFB304670BD10B590F8121197
:1028E00080F81311042180F81211D0F8E805C068AF
:1028F0008047002010BDC0EB00100021C00007225F
:10290000B0FBF2F0491C8142FCD9704710B5016957
:1029100000238C6882691168C4F341042CB1012C36
:1029200003D0022C04D0032C05D16FF30A0102E07E
:102930006FF30A01C91C11600069416841F480719C
:102940004160184610BD0000F0B54A7800254C697A
:10295000012A15D00A7800EB82035A6D16681269B5
:10296000DCB38C68C1F8144064F306025B6D22F49A
:10297000C01202F500221A61C278012A30D035E077
:1029800083691F681A6934B18E68B44206D966F348
:1029900006024E6104E022F07F0201E064F30602C9
:1029A00022F4C01202F500221A61C278012A05D170
:1029B0000C780A6900EB8404A469626147F0044260
:1029C0001A60C278CAB94A69BAB10A7800690121A5
:1029D0009140426B0A4342630FE0FFE70C7AC3E782
:1029E0000B780A6900EB83035B6D5A61097846F046
:1029F000044200EB8100406D02602846F0BD0000FB
:102A0000426D07491161C178012908D1426D00F278
:102A1000CC515161406D01684FF0802101607047D9
:102A2000180008C0F0B50E7800254F780122B2409A
:102A30002B4600EB8604012F19D0646D62F31F430F
:102A4000226816040DD40E8966F30A02CE788979BD
:102A500066F3934261F3995242F0805141F4004190
:102A600021600069C1691943C1612846F0BDA469AC
:102A700062F30F03E4E710B502464C780B780020B0
:102A800002EB8302012C09D0526D1368C97823F43C
:102A90000013032904D0022902D003E09269F4E76D
:102AA00043F08053136010BD02464B780978002034
:102AB00002EB8101012B05D0496D0A6842F4001236
:102AC0000A6070478A691168002901DA41F0804183
:102AD00041F4001111607047F0B54B780A7800247A
:102AE00001264F6900EB8202012B15D0556D2B6832
:102AF0002A69002F61D08E6837447F1EB7FBF6F736
:102B000067F3DC42C2F3C947774367F312022A61D5
:102B1000C278012A57D05CE095692B682A696FB1A9
:102B2000D1F808C067F3120267447F1EB7FBFCF7B9
:102B300067F3DC42CF78012F05D008E06FF3120273
:102B400066F3DC4203E022F0C04202F100522A6147
:102B5000C278012A0ED0CA78012A12D04A69BAB1C5
:102B60000A7896400269556B35435563CA78012A45
:102B700007D00DE00D780A6900EB8505AD696A6143
:102B8000F4E702699268120AD2070CD043F080532E
:102B900043F004420B7800EB83039B691A60CA7808
:102BA000012A03D026E043F00053F1E78A8A93B26A
:102BB0000A78C96800F094F81CE08F6867F3120285
:102BC00066F3DC42A3E70D780A6900EB85056D6DBD
:102BD0006A61CA78012A06D14A7912B143F00053DA
:102BE00001E043F08053097843F0044200EB810098
:102BF000406D02602046F0BD38B5002422460094A6
:102C0000009B43F020030093009B61F38A13009321
:102C10000099C36819610749C06803690093521C91
:102C20008A4202D8009B9B06F7D40320FFF763FE7D
:102C3000204638BD400D030001460020096989681F
:102C4000C1F3410139B1012903D0022905D003297B
:102C500000D1022070470320704701207047C068F0
:102C6000406910F0010F01D000207047012070472B
:102C7000C068416980690840704700698169C0691E
:102C8000084080B2704700698169C0690840000C43
:102C9000704700EB8101496D89680069406908400F
:102CA0007047034610B50020D21C9208D3F8D030EC
:102CB00003E01C6841F8044B401C9042F9D30846DD
:102CC00010BD817A00290AD001698968C90706D038
:102CD000D0F80C11D0F80C0121F00301016070470D
:102CE00030B5C47800256CB900EB82000024DB1CF1
:102CF0009B08D0F8D00003E051F8042B0260641C5C
:102D00009C42F9D3284630BDFEE700000B4810B5C1
:102D10000C4A84790A4B1068072C02D0082C02D088
:102D200002E001F07F011954401C1060B0F5006F03
:102D300001D100201060002010BD000058040020C8
:102D400001280020F40300200FB4054B10B503A99F
:102D5000044A029800F014FB10BC5DF814FB00005C
:102D6000453C00088003002010B5B94A2DED020B48
:102D70002DED0C8B82B00F9921F000409FEDB6CB6A
:102D800090422CDBA0F140530E9AA3F17F631A43CB
:102D90000FD0B349884202DC16D10E98A0B19DED48
:102DA0000E0B02B0BDEC0C8B02B0BDE8104000F081
:102DB00003BA0029C1BF9FEDAC0B02B0BDEC0C8B78
:102DC00002B0C8BF10BD16E0012000F021FA02B029
:102DD000BDEC0C8B02B0BDE8104000F0F9B9A44A7C
:102DE0009FEDA59B9FEDA6AB90425EDAA6499FEDB5
:102DF000A8CB814208DBB0EE4C0AF0EE6C0A02B0C0
:102E0000BDEC0C8B02B010BD9DED0E0B53EC102BE6
:102E100051EC100BFDF783FA41EC180B9E4806218C
:102E2000B0EE480AF0EE680A784400F049F953EC35
:102E3000182B51EC100BFDF772FA41EC1B0B974865
:102E4000B0EE480AF0EE680A0421784400F038F940
:102E500053EC182B51EC100BFDF761FA53EC192BC6
:102E6000FDF7B6F941EC100B51EC1B0B53EC102B9A
:102E7000FDF7C7FA41EC100B53EC102B9DED0E0B38
:102E800051EC100BFDF74BFA53EC1A2BFDF744FAFB
:102E90009DED0E1B53EC112BFDF73EFA53EC1C2B52
:102EA000FDF73AFA41EC100BA9E79FED7D8B9FED02
:102EB0007EBB9DED0E0B002953EC192B51EC100B32
:102EC00052DAFDF785F953EC182BFDF728FA41EC9F
:102ED000180B77480621B0EE480AF0EE680A7844ED
:102EE00000F0EEF853EC182B51EC100BFDF717FA2D
:102EF00041EC1D0B6F48B0EE480AF0EE680A042161
:102F0000784400F0DDF853EC182B51EC100BFDF772
:102F100006FA53EC192BFDF75BF941EC190B51EC58
:102F2000180B01F0C5F941EC180B53EC192B51ECBF
:102F30001D0BFDF766FA53EC182BFDF7F0F953EC77
:102F40001A2BFDF7E6F941EC100B51EC180B53EC82
:102F5000102BFDF73DF953EC1B2BFDF7E0F953EC7B
:102F60001C2BFDF7D9F96DE0FDF7D6F953EC182BC2
:102F7000FDF7D5F941EC180B01F09AF941EC1A0B69
:102F800000208DED00AB00909DED000B51EC1A0B75
:102F900053EC102BFDF71CF99DED000B41EC1C0BC5
:102FA00053EC102B51EC100BFDF7B9F953EC182B27
:102FB000FDF7B2F953EC1C2BFDF723FA41EC1C0B87
:102FC0003D48B0EE480AF0EE680A0621784400F069
:102FD00077F853EC182B51EC100BFDF7A0F941ECEE
:102FE0001D0B3648B0EE480AF0EE680A042178441A
:102FF00000F066F853EC182B51EC100BFDF78FF92D
:1030000053EC192BFDF7E4F841EC100B51EC1D0BC0
:1030100053EC102BFDF7F5F953EC1A2BFDF77FF964
:1030200053EC1C2BFDF7D4F841EC100B53EC102B98
:103030009DED000B51EC100BFDF7CAF853EC1B2B68
:10304000FDF76DF941EC100BD9E60000000000001F
:103050000000F03F00000000182D4454FB210940FF
:103060000000F07F000000000000000000000000F1
:103070000000E03F00000000000000000000F03F02
:10308000075C143326A6913C0000603C0000000061
:10309000182D4454FB21F93F3C1500004A1500004F
:1030A000000000000000E03F0000000000000040C1
:1030B000861400009414000098130000A61300006A
:1030C00070B504462DED028B4D1E00EBC500B0EE31
:1030D000408AF0EE608A90ED000B35F0060017D0C4
:1030E00053EC182B51EC100BFDF719F941EC100BB8
:1030F0006D1E04EBC50090ED001B51EC100B53EC62
:10310000112BFDF765F841EC100B35F00600E7D107
:10311000022D36D0042D1CD0062D1CBFBDEC028B19
:1031200070BD53EC182B51EC100BFDF7F8F894ED33
:103130000A1B53EC112BFDF74BF853EC182BFDF742
:10314000EEF894ED081B53EC112BFDF741F841EC20
:10315000100B53EC182B51EC100BFDF7E0F894ED2D
:10316000061B53EC112BFDF733F853EC182BFDF72E
:10317000D6F894ED040B53EC102BFDF729F841EC35
:10318000100B53EC182B51EC100BFDF7C8F894ED15
:10319000021B53EC112BFDF71BF853EC182BFDF71A
:1031A000BEF894ED001B53EC112BFDF711F8BDECAC
:1031B000028B41EC100B70BD10B553EC102B51EC91
:1031C000100BFDF705F841EC100B10BD00000000DE
:1031D0009FED050B10B553EC102B51EC100BFDF7C8
:1031E00010F941EC100B10BD0000000000000000C1
:1031F00002E008C8121F08C1002AFAD170477047C0
:10320000002001E001C1121F002AFBD1704700001D
:103210000149086070470000600400202DE9FF5F4D
:10322000DDE90220010DDDF838B0024318D044F684
:103230001050A1F2FF3141430D140F98012820D006
:10324000A5EB0B00401C5FEA000A4FF00004474E5C
:10325000DFF81C91A046504616D5CAF1000728E0B9
:103260000F98012443A2012808D0002100980F9B49
:10327000C0E90021C0E90243BDE8FF9F6FEA0B01EE
:10328000F4E7CBF10000DEE7074612E0F80707D0CD
:103290002246334640464946FDF741F88046894676
:1032A0002246334610461946FDF739F804460E46C5
:1032B0007F10002FEAD1DDE90201BAF1000F42468A
:1032C0004B4602DAFDF72BF801E0FDF79AF80446C9
:1032D0000E460022284BFDF717F903D84FF0FF30B8
:1032E000014607E00022254B20463146FCF770FFDF
:1032F000FDF73AFA102409E0002C0ADB0A22002329
:10330000FDF74CF9019B30321A55641E50EA010258
:10331000F2D1641C019AC4F1110314440F9A012ADA
:1033200003D0012208430DD10AE0084304D0002055
:103330004FF0110B0F9080E7A3EB0B056D1E0DE016
:103340005B4504DD4FF0000205F1010504E003DAFE
:103350004FF00002A5F10105002AECD000980F996A
:10336000C0E90231C0E9004586E7000000002440C2
:103370000000F03F300000000000F0430000E03F9C
:103380002DE9FF4F95B09B468946064600250FE282
:10339000252877D100242746F84A0121059400E02A
:1033A000044316F8013F203B01FA03F01042F7D125
:1033B00030782A2811D06FF02F033078A0F1300236
:1033C000092A16D8059A44F0020402EB820203EBA4
:1033D00042021044761C0590EFE759F8042B059241
:1033E000002A03DA504244F40054059044F00204E9
:1033F000761C30782E2816D116F8010F44F00404FC
:103400002A280DD06FF02F023078A0F13003092B5D
:1034100009D807EB870302EB4303C718761CF3E7D1
:1034200059F8047B761C30786C280FD006DC4C28C9
:1034300017D068280DD06A2814D104E0742810D061
:103440007A280FD10DE044F400140AE044F480140B
:1034500001E044F440147278824202D104F58014F1
:10346000761C761C307866280BD013DC582877D071
:1034700009DC002875D04528F6D04628F4D0472826
:103480001AD19DE118E0632835D0642879D06528E9
:1034900012D195E1702873D008DC6728F1D0692833
:1034A0006FD06E280DD06F2806D1B5E073282CD0D0
:1034B000752875D0782874D05A46179990476D1C96
:1034C00075E1C4F30250022809D003280DD0D9F8C1
:1034D000001004280DD00D6009F1040967E1D9F846
:1034E0000010EA17C1E90052F6E7D9F800100D8084
:1034F000F2E70D70F0E719F8041B8DF800100020BA
:103500008DF80100EA46012003E059F804AB4FF0C2
:10351000FF3061074FF0000102D40DE008F1010116
:103520008846B9420FDA8045F8DB1AF808100029FE
:10353000F4D108E008F1010188468142FADB1AF86B
:1035400008100029F6D105985B46A0EB0807214634
:103550003846179A00F094FA284400EB080507E073
:103560004DE029E10DE01AF8010B5A4617999047F2
:10357000B8F10108F7D25B4621463846179A13E1A5
:1035800042E00A220092C4F302524FF0000A022ADB
:1035900008D059F804CB032A4FEAEC710AD00DE0A9
:1035A00029E02AE009F1070121F00702F2E802C14F
:1035B000914609E00FFA8CFC4FEAEC71042A03D122
:1035C0004FFA8CFC4FEAEC71002907DA0A46002119
:1035D000DCF1000C61EB02012D2202E0220504D592
:1035E0002B228DF80420012203E0E20701D02022E3
:1035F000F7E7904659E00A2102E010220DE0102181
:103600004FF0000A00910BE010224FF0000A44F046
:1036100004040827009203E008224FF0000A0092F9
:10362000C4F30252022A05D059F804CB0021032A20
:1036300008D009E009F1070121F00702F2E802C110
:10364000914605E01FFA8CFC042A01D10CF0FF0C16
:103650004FF00008220728D5702806D0009B83F081
:10366000100353EA0A0305D00EE040228DF804202F
:10367000012208E05CEA010206D030228DF8042025
:103680008DF8050002229046009B83F0080353EA60
:103690000A030AD15CEA010201D1620705D5302292
:1036A0008DF804204FF001087F1E582804D034A064
:1036B00003900EA802900DE036A0F9E7534660464D
:1036C000009AFCF76BFF84460398825C0298401EC8
:1036D000029002705CEA0100F0D1029806A9081A73
:1036E00000F1200A600702D524F4803400E00127AD
:1036F000574502DDA7EB0A0000E0002000EB0A01BD
:10370000009005984144401A0590E00306D45B46BA
:103710002146179A059800F0B3F90544002706E002
:1037200001A85A46C05D179990476D1C7F1C4745FC
:10373000F6DBE0030CD55B462146179A059800F0AE
:103740009FF9054404E030205A46179990476D1CB4
:103750000099481E00900029F5DC08E002980299C3
:103760005A460078491C0291179990476D1CBAF18E
:103770000001AAF1010AF1DC65E10000092801005D
:1037800030313233343536373839616263646566D7
:103790000000000030313233343536373839414299
:1037A000434445460000000000F058F90544761CEB
:1037B000307800287FF4ECAD19B02846BDE8F08FD2
:1037C000620700D4062709F1070222F0070CFCE883
:1037D0000223E14603F000485FEA080C02D00FF232
:1037E000702C0DE05FEA045C02D50FF2682C07E054
:1037F0005FEAC47C02D00FF2602C01E0AFF2700CE3
:103800004FF0FF3823F00043CDF850C065280CD0AE
:1038100006DC452809D046281DD047283DD13DE08B
:10382000662818D067287ED138E00021112F01DBEF
:10383000112000E0781CCDE9000106A90EA8FFF7D1
:10384000EDFCDDE90F010E9A03910021009207F1D2
:10385000010A04914DE04FF000400097CDE90110BE
:1038600006A90EA8FFF7DAFCDDE90F0203920E9B12
:1038700011990022DDF80CA00093049211B9791C73
:1038800000EB010AB7EB0A0004D4C0F1FF3007F1E6
:10389000010A0490AAEB0700019044E0012F00DA2E
:1038A00001270021112F01DD112000E03846CDE96C
:1038B000000106A90EA8FFF7B1FCDDE90F010E9A81
:1038C0000391002104910092BA4621070CD4039978
:1038D000514500DA8A46BAF1010F05DD009AAAF1D6
:1038E0000101515C302908D0B84202DA10F1040F0E
:1038F00006DA0121CDE9011015E0AAF10101E9E79D
:10390000002805DC049901440491AAEB000102E0BF
:10391000411C514500DD8A460499401A401C019023
:103920004FF000400290200704D40198504501DB7D
:10393000CDF8048000208DF84F0002980DF14F075C
:10394000B0F1004F25D02B200E9002984FF00208C6
:1039500000280CDA404202902D200E9007E00A2148
:103960000298FCF705FE3031029007F8011DB8F10E
:103970000001A8F10108F2DC02980028EFD1791EBD
:103980000E980870307800F0200040F0450007F8ED
:10399000020D12A8C01B00F107081498007800B1AE
:1039A000012000EB0A01019801EBE0710598414408
:1039B000401A401E0590E00306D45B462146179A44
:1039C000059800F05DF805441498007818B15A463F
:1039D000179990476D1CE00324D55B462146179A42
:1039E000059800F04DF805441CE00498002807DB1A
:1039F000DDE90301884203DD0098405C179901E08E
:103A0000179930205A469047049805F10105401C4B
:103A100004900198401E019004D12E205A46179917
:103A200090476D1CBAF10001AAF1010ADDDC05E046
:103A300017F8010B5A46179990476D1CB8F1000111
:103A4000A8F10108F4DC5B462146179A0598ABE61D
:103A50002D0000002B000000200000002DE9F041A7
:103A6000044600251E461746880404D405E039465E
:103A70002020B0476D1C641EF9D52846BDE8F081B2
:103A80002DE9F041044600251E469046C80301D5A5
:103A9000302700E02027880404D505E04146384659
:103AA000B0476D1C641EF9D52846BDE8F0810000C2
:103AB000F0B5012193B08805FDF744FF01210720EF
:103AC000FDF740FF01210D022846FDF753FF0121BC
:103AD0004802FDF74FFF01218E023046FDF74AFFF5
:103AE0004148069041480024CDE904400320CDE937
:103AF0000740E800CDE90A608000CDE90C05099493
:103B000000010E9001250420CDE91054384E0F908D
:103B100004A930461294FDF7E9FB01213046FDF778
:103B2000DAFBFDF7E9FC1620CDE90004A803CDE996
:103B300002046846FCF7D8FE2E4E04948DF814401B
:103B40008DF815500694079408948DF8245004A914
:103B50003046FCF7E9FE062301220B213046FCF734
:103B600019FF254F04948DF814408DF815500694D4
:103B7000079408948DF8245004A93846FCF7D4FE25
:103B80000623012209213846FCF704FF04948DF82E
:103B90001440069407940894184C8DF815508DF82D
:103BA000245004A92046FCF7BFFE0122062311463B
:103BB0002046FCF7EFFE0120FCF7DCFE0121304639
:103BC000FCF788FE01213846FCF784FE01212046DF
:103BD000FCF780FE01213046FCF79CFE3046FCF7E6
:103BE00013FF13B0F0BD0000C20000200823014005
:103BF00010640240002001400021014000220140E9
:103C00000D4900209FED0D0A0870C86108634863E4
:103C1000886348678867C867C864886408674871AC
:103C20008031074A81ED010A81ED000A8861401C5C
:103C30009042FCD388617047200000200000000003
:103C40000059000105490968C90105D54FF06041D7
:103C50000A68002AFCD0087070470000FCED00E004
:103C600001484078704700008603002038B50D46B3
:103C700004460121342000F051F93B2000F02CF9DA
:103C80001049487041060F4800F1020016D001218A
:103C90004170022221463F2000F0F2F8607828703F
:103CA000022269463F2000F0EBF801213A2000F0A3
:103CB00035F99DF8010000F0800038BD0021417009
:103CC000084638BD8403002070B5114A93685B1C18
:103CD00093600A46014600233F2000F049F9002185
:103CE000352000F01BF90B4C4FF480752946204617
:103CF000FDF79DFC0028F9D029462046FDF797FCEA
:103D00000028F9D1BDE8704000213B2000F006B941
:103D1000840300200010024010B504460246002132
:103D20000C2000F06DF90B212246084600F068F9DE
:103D3000224600210C2000F063F9224621210D20AB
:103D400000F05EF9224662210E2000F059F9224669
:103D500076210F2000F054F922462D21102000F08A
:103D60004FF922463B21112000F04AF922467321E7
:103D7000122000F045F922462221132000F040F9DC
:103D80002246F821142000F03BF9224600210A20A7
:103D900000F036F922466221152000F031F9224662
:103DA000B621212000F02CF922461021222000F01B
:103DB00027F918212246084600F022F922461D2143
:103DC000192000F01DF922461C211A2000F018F9D4
:103DD0002246C7211B2000F013F9224600211C2097
:103DE00000F00EF92246B2211D2000F009F922460A
:103DF000EA21232000F004F922460A21242000F0C1
:103E0000FFF822460021252000F0FAF82246112171
:103E1000262000F0F5F822465921292000F0F0F87C
:103E2000224688212C2000F0EBF8224631212D205B
:103E300000F0E6F822460B212E2000F0E1F82246A1
:103E40000621002000F0DCF822460621022000F0C6
:103E5000D7F807212246084600F0D2F8224605216D
:103E6000082000F0CDF822460221092000F0C8F811
:103E70002246FF21BDE81040062000F0C1B8000036
:103E80002DE9F041DFF848800E4640F0C0041546A9
:103E900001214046FDF7D2FB0E4F40213846FDF789
:103EA000C6FB0028F9D100212046FDF7C9FD0024FA
:103EB00006E000210846FDF7C3FD3055641CE4B25E
:103EC000AC42F6D34046BDE8F0410121FDF7B8BB56
:103ED000000402400000024070B50E4D40F0C004E6
:103EE00001212846FDF7AAFB0B4E40213046FDF785
:103EF0009EFB0028F9D100212046FDF7A1FD0021FD
:103F00000846FDF79DFD044601212846FDF798FB74
:103F1000204670BD000402400000024070B5124D02
:103F2000124C0646A1B101291DD12846FDF786FB9A
:103F300040212046FDF77BFB0028F9D100213046C7
:103F4000FDF77EFD2846BDE870400121FDF778BBF6
:103F500001212846FDF772FB40212046FDF767FB53
:103F60000028F9D1EAE770BD0004024000000240D9
:103F70002DE9F04140F040041F48204F15460E4601
:103F80008BB1012B36D101218046FDF757FB402133
:103F90003846FDF74CFB0028F9D100212046FDF7FB
:103FA0004FFD00241EE001218046FDF747FB402124
:103FB0003846FDF73CFB0028F9D100212046FDF7EB
:103FC0003FFD002405E0305D0021FDF739FD641C54
:103FD000E4B2AC42F7D307E0305D0021FDF730FDDD
:103FE000641CE4B2AC42F7D34046BDE8F041012185
:103FF000FDF726BBBDE8F08100040240000002404E
:104000002DE9F041154D164C0E460746CAB1012A5E
:1040100022D101212846FDF711FB40212046FDF762
:1040200006FB0028F9D100213846FDF709FD0021E3
:104030003046FDF705FD2846BDE8F0410121FDF7BA
:10404000FFBA01212846FDF7F9FA40212046FDF785
:10405000EEFA0028F9D1E6E7BDE8F081000402405D
:10406000000002402DE9F0418046012188B048045B
:10407000FDF774FC01210846FDF764FC02208DF871
:1040800014008DF8150000241F4F0C258DF81640E4
:10409000012604958DF8176004A93846FDF766FAE5
:1040A000072202213846FDF7B2FA072203213846DB
:1040B000FDF7ADFAADF80840ADF80A50134DADF874
:1040C0000440CDF80080ADF80640ADF80C406946DC
:1040D0002846FDF76FFF012240F225512846FDF7E3
:1040E00051FF26208DF818008DF819408DF81A40E0
:1040F0008DF81B6006A8FDF7B9FB01212846FDF7E6
:1041000011FF08B0BDE8F08100000240004400400B
:104110002DED028BADF5916D4649002500950FC937
:104120008DE80F0044492846A1F5E073A1F1E006AF
:104130000DF1100401EBC00206EBC00792ED000B7D
:1041400004EBC00282EDAE0B82ED760B03EBC002F6
:1041500092ED000B04EB0012401C82ED060B97ED74
:10416000000B1C2882ED080BE4DB3348E03090EDB7
:10417000000B8DED040B90ED020BA0F534708DED6E
:10418000060B90ED0A0B2DA08DED080BFEF7DCFD64
:104190009DED020B53EC102B51EC100BFCF7BFF80C
:1041A0009DED000B41EC180B53EC102B51EC100B58
:1041B000FCF7B5F853EC182BFCF70AF841EC100BA0
:1041C00027A053EC102BFEF7BFFDEAAF0095009837
:1041D00004EB001696ED080B53EC102B51EC100B72
:1041E000FCF79DF896ED060B41EC180B53EC102BE9
:1041F00051EC100BFCF793F853EC182BFBF7E8FF8E
:10420000009A07EBC202C2E900010098401C00902E
:104210001C28DCD31C21EAA800F02AF81348056604
:104220000320FDF75FFC0020FDF75CFCFDF7FCFAC6
:10423000FEE7000058430008900200204269736DB9
:10424000696C6C616820486972205261686D616EAA
:10425000204E69722052616865656D200A00000079
:104260006D5831203D202566000000002000002010
:1042700070B506460D4600240AA0FEF765FD09E06C
:1042800006EBC40090ED000B07A053EC102BFEF7DB
:104290005BFD641CAC42F3DBBDE8704001A0FEF79F
:1042A00053BD00000D0A000020256620000000001C
:1042B00000B52DED048B83B041EC190BFCF78EFAA1
:1042C00041EC180B18EE100A18EE901A8DED008BC9
:1042D000002818BF0120084320F00040C0F17F6093
:1042E00000F1E040C00F14D019EE101A19EE900A38
:1042F0008DED009B002918BF0121084320F00040EC
:10430000C0F17F6000F1E040C00F04BF0120FEF764
:104310007FFF51EC180B03B0BDEC048B00BD000017
:104320000000060203070700010001000400080066
:104330000100000000000200010000000100000078
:10434000001000200040008008000000080000006D
:104350000800000008000000666666666666E63FC4
:10436000666666666666E63F555555555555C53FC2
:104370007D6FEB0312D6D4BF5544880E55C1C93F9B
:104380003B8F68B52882A4BF88B20175E0EF493F32
:1043900009F7FD0DE13D023F4B2D8A1C273A03C072
:1043A000C88A599CE52A004059018D1B6C06E6BF5E
:1043B00082922EB1C5B8B33FD84300080000002058
:1043C000640400007E080008204700086404002000
:1043D000A42F0000003200082113024012443A408A
:1043E000082904DA0C04014F0808439A99993EC33E
:1043F000F5485867414E474C453D104DE09C11A58E
:10440000BDC1873FBA49BBBA2B87E23FD33FE98D95
:104410005880E93F399F1E01FA02DB3FCA72D5E698
:10442000466BCE3FDDABAA258A01EF3FD4168D6BDC
:1044300032A9E83F4AC052D786FCDE3F7AC5BB723C
:10444000A949CB3F8FA0930610620CCC3F0562DCDC
:1044500084B0576E3F63F5D20A8FDA1D3F3F935801
:10446000ADA7B1183FFC9D375F364BC33E14FFFB31
:104470007C2976B33E5F196547F47C873E284AFF66
:10448000E07555463E7E0CAE9D4E20FB3F6A340FD4
:1044900019BC2B024027728E2857F2DC3F1621569A
:1044A0002E3D22CD3FA3570394869E103840ECC288
:1044B0000FCEA782024039C80ACF62190440206299
:1044C0005DBEF0A404406BBD5B3023B20540D0FF5D
:1044D00045ACD20D04409AC5BE76C6290740AF98B8
:1044E000F588EFE1783940DB1FCFFEA524C43F45B6
:1044F000978B86F9E3BB3FA889139F08D0BA3FD9B1
:10450000DD5FE43594B73F6C2434427244B33F1FFF
:10451000F0F3F16613B43F5666EC796E89B3187800
:10452000086223A1119223AA302B9A9901102BA97A
:104530003FFCE6296BCED3A53F607EA9CAB771A721
:104540003F6FC201506CD5AC3F7CB9A58EBB2C9798
:104550003F488D9C94681A9D3F780FD610405DE9C6
:10456000AD3F0932AC296358B44860D9885F300642
:1045700076FFB23F7277F97DCF2DC13FF06A8EB3DF
:10458000B617CC3F35D82A7A0DE5C53F713D0AD71D
:10459000A370CD3F2A018709D0DABE3FB126C86893
:1045A0001A1DCE3F5CFACA95D750BE3F12CF60F3BA
:1045B00074A5C73F9AF050B67612DD3F3E751436AB
:1045C000EF97D43F3ED4111B876D2740A5203D1A9D
:1045D0008EC81F4011260E9EDE5CEB3FDC0475503A
:1045E000DDAADC3F0F2174F1338F2440736E2C8BD6
:1045F00036E515401FC2E68620C71D4062923E6B1D
:10460000864DDE3F6444484E8E06703C94F891A47B
:10461000B504793C62D66D7D6E01813CDC75027813
:1046200060C5C23CAAB2FCB4E2BFDA3F3F4A1A13EB
:10463000CA114E3F3F23C2D3EC30F03F6CDBEB3569
:1046400021A3E43F6B344008101E66E043339663B9
:10465000E53F85261C89B634E43F36CF8807D1D0A4
:10466000D43FB48B396D654033D83F4013C4ED8ED1
:1046700084E63FC8BE66E4ECD0D33F07FD964A8986
:104680002EEC3FAE7BA5D843CED13F7517CD6F3D05
:10469000DD25C0E80B9BAD2EDAD4BF2A03046201EE
:1046A0005AC001412D01020304041706070809E559
:1046B000211B08350413992614087D251B0839048D
:1046C00013DB281B0867081361231B086F04135DA5
:1046D000221B08730413A8030228200213FF1409E5
:1046E00002431302012DC032090485190B1305245E
:1046F00016100105240110090104240202052406F4
:104700001701070582030815FF09040133020A2E69
:104710000705010240072A8107212AC2D152080059
:040000050800018965
:00000001FF
